:020000040800F2
:10000000D0040020C1010008F312000865110008A7
:10001000F1120008CD020008791900080000000064
:10002000000000000000000000000000171300089E
:10003000CF02000800000000151300081913000883
:10004000DB010008DB010008DB010008DB01000820
:10005000DB010008DB010008DB010008DB01000810
:10006000DB010008DB010008DB010008DB01000800
:10007000DB010008DB010008DB010008DB010008F0
:10008000DB010008DB010008DB010008DB010008E0
:10009000DB010008DB010008DB010008DB010008D0
:1000A000DB010008DB010008DB010008DB010008C0
:1000B000DB010008DB010008DB010008DB010008B0
:1000C000DB010008DB010008DB010008DB010008A0
:1000D000DB010008DB010008DB010008DB01000890
:1000E000DB010008DB010008DB010008DB01000880
:1000F000DB010008DB010008DB010008DB01000870
:10010000DB010008DB010008DB010008DB0100085F
:10011000DB010008DB010008DB0100081114000806
:10012000DB010008DB010008DB010008DB0100083F
:10013000DB010008DB010008DB010008DB0100082F
:10014000DB010008DB010008DB010008DB0100081F
:10015000DB010008DB010008DB010008DB0100080F
:10016000DB010008DB010008DB010008DB010008FF
:10017000DB010008DB010008DB01000800000000D3
:10018000DB010008DB010008DB010008DB010008DF
:10019000DB010008DB010008DB010008DB010008CF
:1001A000DB010008DB010008DB010008DFF80CD0F0
:1001B00000F07AF80048004799190008D0040020A0
:1001C0000648804706480047FEE7FEE7FEE7FEE7F1
:1001D000FEE7FEE7FEE7FEE7FEE7FEE7BD130008E9
:1001E000AD0100082DE9F05F0546002092469B46D0
:1001F00088460646814640241BE02846414647463D
:10020000224600F041F853465A46C01A914110D395
:1002100011461846224600F028F82D1A67EB01080F
:100220004F4622460120002100F01FF817EB00097D
:100230004E41201EA4F10104DFDC484631462A4627
:100240004346BDE8F09FD2B201E000F8012B491E01
:10025000FBD270470022F6E710B513460A46044663
:100260001946FFF7F0FF204610BD202A04DB203A94
:1002700000FA02F1002070479140C2F1200320FAF9
:1002800003F3194390407047202A04DB203A21FAF7
:1002900002F00021704721FA02F3D040C2F120029F
:1002A0009140084319467047064C074D06E0E06848
:1002B00040F0010394E8070098471034AC42F6D3AD
:1002C000FFF778FFCC190008EC190008FEE770472B
:1002D00072B6FEE72DE9F84FDFF890B100224FF03B
:1002E00001084FF0030A4FF00F090BF1040E00BF95
:1002F0000B6808FA02F42340A3426ED14D68022D28
:1003000001D0122D0ED1D50800EB850CDCF8205061
:100310005607F70E09FA07F6B5430E69BE402E439D
:10032000CCF82060066855000F790AFA05FC07F042
:10033000030726EA0C06AF40374307604E68012EDC
:1003400005D0022E03D0112E01D0122E0ED18768B7
:10035000CE6827EA0C07AE403E4386604668A64357
:100360000C79C4F30014944034434460C4688E682C
:1003700024EA0C04AE402643C6604C68E4006FD506
:100380003B4C256845F480452560246822F0030530
:1003900004F480440094374C2E19D6F80848950789
:1003A0002F0F09FA07F5AC43334DA84201D10025C0
:1003B0002EE0324DA84201D1012529E0304DA8425E
:1003C00001D1022524E02F4DA84201D103251FE0D1
:1003D0002D4DA84202D104251AE041E02B4DA84240
:1003E00001D1052514E02A4DA84201D106250FE0D0
:1003F000284DA84201D107250AE0274DA84201D186
:10040000082505E0254DA84201D1092500E00A256F
:10041000BD402543C6F80858DBF800405D464E68ED
:100420009C43F60300D51C432C60DEF80040754663
:100430004E689C43B60300D51C432C600B4D083519
:100440002C684E689C43F60200D51C432C60074D77
:100450000C352C684E689C43B60200D51C432C60BA
:10046000521C102AFFF444AFBDE8F88F003C014055
:1004700044380240003001400000024000040240C5
:1004800000080240000C024000100240001402402C
:1004900000180240001C02400020024000240240DC
:1004A0000148806870470000080000200248816809
:1004B0000278114481607047080000200B4810B595
:1004C000016841F400710160016841F480610160DC
:1004D000016841F480710160032000F06DF80F2085
:1004E00000F006F800F024F8002010BD003C0240A7
:1004F00070B50D4D04464FF47A712878B1FBF0F0D9
:100500000A490968B1FBF0F000F018FB48B9102C5B
:1005100007D200222146501E00F02EF800206C6009
:1005200070BD012070BD00000800002014000020F4
:100530000A4808B5016841F480410160006800F490
:10054000804000900548001F016841F08051016023
:10055000006800F08050009008BD00004438024060
:1005600000F01F02012191404009800000F1E020CD
:10057000C0F8001170470000F0B40E4B1B680C4629
:10058000C3F30223C3F10705042D00D90425191D67
:10059000072901D2002300E0DB1E012606FA05F13F
:1005A000491E214099409E40761E16403143F0BCC2
:1005B00000F0A0BE0CED00E0064900F0070208685C
:1005C0004FF6FF03184040EA0220034A1043086038
:1005D000704700000CED00E00000FA052DE9F8433B
:1005E0001748016841F0805101600068154F00F024
:1005F0008050012600903E64FFF752FF05464FF4FD
:100600007A78114C05E000BFFFF74AFF401B4045D8
:100610000DD86068C003F7D57E64FFF741FF05463B
:10062000464607E0FFF73CFF401BB04202D90320DB
:10063000BDE8F88360688003F4D50020F8E7000087
:100640004038024000000E42007000402DE9F047A3
:100650000E46050065D0DFF81481D8F80000F7B227
:1006600000F00F00B04207D288F80070D8F8000000
:1006700000F00F00B04254D128683D4C810712D5DC
:10068000400703D5206840F4E05020602878000738
:1006900003D5206840F4604020602068A96820F0FD
:1006A000F000084320602878C0072DD030496868E2
:1006B0000839012812D0022813D0032811D0096864
:1006C000890700292DDA216821F003010143216007
:1006D000FFF7E6FE814641F2883A0EE00968890399
:1006E000EFE709688901ECE7FFF7DAFEA0EB090103
:1006F000514502D90320BDE8F0872068696800F001
:100700000C00B0EB810FEFD1D8F80010404601F09B
:100710000F01B14207D90770006800F00F00B04226
:1007200001D00120E7E72878400705D52068E9686F
:1007300020F4E050084320602878000706D52068A0
:10074000296920F4604040EAC100206000F036F8DA
:100750002168084AC1F30311515CC840064908608A
:100760000F20FFF7C5FE0020C5E70000003C024057
:1007700008380240B2190008140000200448054956
:1007800000680968044AC1F38221515CC84070477F
:100790001400002008380240C21900080448054926
:1007A00000680968044AC1F34231515CC84070478F
:1007B0001400002008380240C2190008154810B57E
:1007C000006810F00C02144813D01449042A0FD00A
:1007D000082A0ED10F4C241F2268236802F03F0222
:1007E0005B0207D52068C0F38810A0FB010106E07A
:1007F000084610BD2168C1F38811A1FB0001002348
:10080000FFF7F0FC2168C1F30141491C4900B0FB2E
:10081000F1F010BD083802400024F40040787D015A
:100820002DE9F84F050076D02878DFF8F8B2BE4CF5
:10083000C00749D0DBF800105846C1F381010129F7
:1008400008D00068C0F3810002280AD1201D00688A
:10085000400206D52068800336D568680028E2D0BB
:1008600032E06868B0F5803F10D0B0F5A02F206866
:1008700010D020F480302060206820F48020206098
:100880006868A0B1FFF70CFE06460CE0206840F453
:100890008030F4E740F480202060F7E7FFF700FEA7
:1008A000801B642873D820688003F7D50CE0FFF71D
:1008B000F7FD064605E000BFFFF7F2FD801B642848
:1008C000F0D820688003F7D42878DFF860828007AA
:1008D0004FF000093ED5DBF80010584611F00C0F20
:1008E00009D00068C0F3810002280BD18D48001F99
:1008F0000068400206D42068800715D5E868012802
:1009000009D111E0E868B8B10120C8F80000FFF78C
:10091000C7FD064605E002E1FFF7C2FD801B022885
:10092000C0D820688007F7D52068296920F0F80032
:1009300040EAC10020600DE0C8F80090FFF7B0FD6C
:10094000064604E0FFF7ACFD801B02281FD8206894
:100950008007F7D42878000722D5724E7448696959
:100960006C3671B101210160FFF79AFD074604E082
:10097000FFF796FDC01B022809D830688007F7D51D
:100980000EE0C0F80090FFF78BFD074605E083E01E
:10099000FFF786FDC01B02287ED830688007F7D499
:1009A0002878400768D5DFF87CA100270AF1380ACB
:1009B000DAF80000C0000BD4DAF8001041F08051E2
:1009C000CAF80010DAF80000012700F0805000900B
:1009D000584E3068C00510D4306840F480703060E4
:1009E000FFF75EFD009005E0FFF75AFD0099401A01
:1009F000022851D83068C005F6D54A4EA868683636
:100A000001280FD00528306810D020F00100306098
:100A1000306820F004003060A868B8B1FFF740FDEE
:100A200000900FE0306840F00100F4E740F004006F
:100A30003060F7E7FFF734FD0099411A41F2883042
:100A4000814264D830688007F4D50EE0FFF728FDB6
:100A5000009007E0FFF724FD0099411A41F2883029
:100A6000814254D830688007F4D42FB1DAF80010EE
:100A700021F08051CAF80010A869C0B3DBF800105B
:100A8000C1F3810102294AD00228484607D0C8F89C
:100A90006000FFF705FD00E039E005463AE0474613
:100AA000C8F86000FFF7FCFC064604E0FFF7F8FC1E
:100AB000801B02282BD820688001F7D4D5E90701D4
:100AC0000843A96A1C4A490802EB01416A6A41EAE3
:100AD0008211084395F82C1040EA01611148001F6B
:100AE000016001203866FFF7DBFC054605E014E0F5
:100AF000FFF7D6FC401B022809D820688001F7D5F3
:100B00000BE000BFFFF7CCFC401B022802D90320FA
:100B1000BDE8F88F20688001F4D40020F8E70120B8
:100B2000F6E7000008380240003802400000474263
:100B3000800E4742007000400000FFFF10B5401ECD
:100B4000B0F1807F01D3012010BD4FF0E02460613F
:100B50000F21601700F0CEFB0020A061072020616C
:100B6000002010BD7047704730B590F83820012A3A
:100B700020D0012280F83820022380F83930036821
:100B80005C6824F070045C6003685C680D682C434A
:100B90005C6003689C6824F080049C6003689C6827
:100BA00049680C439C6080F83920002180F8381097
:100BB000084630BD022030BD10B5040003D094F8C3
:100BC000390010B107E0012010BD002084F8380082
:100BD000204600F00DF8022084F83900211D20681D
:100BE00000F01CFC012084F83900002010BD00003A
:100BF00008B5114A01681148914208D1016841F0D5
:100C000002010160006800F00200009008BD0C4A7B
:100C10009142FBD1016841F020010160006800228F
:100C200000F02000009011463720FFF7A5FCBDE83A
:100C300008403720FFF794BC0004004040380240D1
:100C4000001400400168CA6842F00102CA600068EE
:100C5000016841F0010101600020704770B5044651
:100C600090F83800012817D0012584F83850022068
:100C700084F839002068826822F0770222F47F42EB
:100C800082600868502837D00DDC202859D005DC58
:100C900088B3102841D151E0022070BD302853D0D4
:100CA00040283AD13FE060282ED070280BD0B0F514
:100CB000805F03D0B0F5005F2FD110E0206881681D
:100CC00021F0070115E0CB68D1E90121206800F08F
:100CD00010FC2168886840F0770088601DE0CB68D0
:100CE000D1E90121206800F004FC2068816841F40A
:100CF0008041816011E01EE0CA684968206800F008
:100D0000C1FC5021206806E0CA684968206800F0EC
:100D1000CAFC6021206800F0F6FB84F839500020FE
:100D200084F8380070BDCA684968206800F0AAFCE1
:100D300040212068EFE700212068ECE710212068BF
:100D4000E9E720212068E6E730212068E3E77047E3
:100D500070B50446006801694FF00005C943890772
:100D600015D4C168C943890711D4E91E0161012066
:100D70002076206880698007204602D0FFF7E7FFD1
:100D800004E000F0C1F8204600F043F92576206821
:100D90000169C943490717D4C168C943490713D436
:100DA0006FF004010161022020762068806910F450
:100DB000407F204602D0FFF7CAFF04E000F0A4F80D
:100DC000204600F026F9257620680169C943090705
:100DD00016D4C168C943090712D46FF00801016134
:100DE000042020762068C0698007204602D0FFF7E3
:100DF000AEFF04E000F088F8204600F00AF92576FE
:100E000020680169C943C90617D4C168C943C90626
:100E100013D46FF010010161082020762068C069AA
:100E200010F4407F204602D0FFF791FF04E000F06D
:100E30006BF8204600F0EDF8257620680169C9437B
:100E4000C90708D1C168C943C90704D1891E016116
:100E5000204600F0FBF820680169C943090609D45F
:100E6000C168C943090605D46FF0800101612046BD
:100E7000FFF778FE20680169C943490609D4C168B3
:100E8000C943490605D46FF040010161204600F0D6
:100E900001F920680169C94389060BD4C168C943B7
:100EA000890607D46FF0200101612046BDE870403B
:100EB000FFF759BE70BD000010B586B0044614217E
:100EC0006846FFF7C7F90D492068884214D10C48DD
:100ED0000021026842F002020260006800F0020095
:100EE0000590032000900220CDE90101CDE9031017
:100EF00069460448FFF7EEF906B010BD0004004053
:100F00003038024000040240704770B5044690F843
:100F100038000D4601280DD0012684F838600220E3
:100F200084F8390042B1042A18D0082A2AD00C2AA1
:100F30004DD139E0022070BD206800F0EDFA206844
:100F4000816941F0080181612068816921F0040113
:100F50008161206881692A69114311E0206800F0ED
:100F600007FB2068816941F4006181612068816923
:100F700021F480618161206881692A6941EA022146
:100F8000816124E0206800F025FB2068C16941F000
:100F90000801C1612068C16921F00401C1612068B4
:100FA000C1692A69114311E0206800F043FB206801
:100FB000C16941F40061C1612068C16921F48061A7
:100FC000C1612068C1692A6941EA0221C16184F8CE
:100FD0003960002084F8380070BD10B5040003D0DB
:100FE00094F8390010B107E0012010BD002084F80A
:100FF0003800204600F00CF8022084F83900211D4A
:10100000206800F00BFA012084F83900002010BDA0
:101010007047704710B504460068012200F05EFA80
:1010200008492068884202D00749884203D1416CB0
:1010300041F4004141642068016841F00101016010
:10104000002010BD00000140000401400F4810B511
:1010500002460378918852881BB10A3242800A39CD
:1010600002E00A3A42800A31818091B2084A116056
:10107000074C8288241D22604FF47A74A14201D06B
:10108000A24202D183F00101017010BD00000020D6
:101090003C040040704770B5040004D094F8390057
:1010A000002510B106E0012070BD84F838502046BC
:1010B00000F022F8242084F839002068C16821F467
:1010C0000051C160204600F001FB2068016921F455
:1010D000904101612068416921F02A014161206845
:1010E000C16841F40051C160E563202084F83900F3
:1010F00084F83A00002070BD10B586B00446142173
:101100006846FFF7A7F814492068884221D11348A0
:101110000021026842F010020260006800F0100036
:1011200005900E481438026842F00102026000681F
:1011300000F0010005904FF4C06000900220CDE95E
:101140000101032003900720049069460448FFF73B
:10115000C1F806B010BD0000001001404438024044
:1011600000000240FEE70000114808B5016841F0A8
:1011700004010160016801F004010091016841F07F
:1011800080010160016801F080010091016841F077
:1011900002010160016801F002010091016841F063
:1011A00001010160006800F00100009008BD00002E
:1011B0003038024010B58EB000240794089409948A
:1011C0000A940B941C2168460C94FFF743F82748B7
:1011D000254901600821C0E9011440F2E731C0E966
:1011E0000314FFF7E9FC08B1FFF772F84FF48050E1
:1011F000079007A91D48FFF731FD08B1FFF768F810
:101200001A48FFF7EAFE08B1FFF762F80B940BA942
:1012100016480C94FFF7A8FC08B1FFF759F86020B6
:1012200000904FF47A70CDE90104082269460F4816
:101230000494FFF76AFE08B1FFF74AF80C226946EA
:101240000A480194FFF761FE08B1FFF741F8082151
:101250000648FFF7DFFE0C210448FFF7DBFE0348DA
:10126000FFF72AFE0EB010BD000400401800002059
:101270001CB500240F4800940D490194016040F210
:101280008331C0E9011440F2E731C160FFF794FCFB
:1012900008B1FFF71DF80094694606480194FFF76E
:1012A00063FC08B1FFF714F80248FFF7CBFC1CBD44
:1012B00000140040540000200C4810B50A49016099
:1012C0004FF4E1314160002181600C22C160C0E92E
:1012D00004128161C161FFF7DEFE002803D0BDE882
:1012E0001040FEF7F5BF10BD001001409000002037
:1012F000FEE7FEE70907090E002806DA00F00F00F6
:1013000000F1E02080F8141D704700F1E02080F823
:101310000014704770477047FFF7C8B830B593B0F6
:1013200030216846FEF796FF14210CA8FEF792FFC5
:1013300020480025016841F080510160006800F0FC
:10134000805011901C48016841F4404101600068E0
:10135000022400F44040119001200090000401900C
:101360008001CDE90640192008904FF4B470CDE912
:10137000090404200B906846FFF752FA08B172B6D0
:10138000FEE7FFF72BF908B172B6FEE70CA90F20B4
:1013900081E831004FF4A0500F904FF4805010902E
:1013A00005210CA8FFF752F9002801D072B6FEE71C
:1013B00013B030BD40380240007000401048016852
:1013C00041F4700101600F48016841F001010160C2
:1013D0000C4A00210832116002680B4B1A4002606F
:1013E000031D0A4A1A60026822F48022026005483E
:1013F0000C300160024958068039086070470000CF
:1014000088ED00E000380240FFFFF6FE10300024B7
:101410000148FFF79DBC000054000020F0B50268B1
:10142000234B244D244E254F254C4FF0804C9842A1
:1014300009D0604507D0A84205D0B04203D0B842D9
:1014400001D0A04204D122F0700E4A6842EA0E0296
:1014500098421BD0604519D0A84217D0B04215D091
:10146000B84213D0A04211D0164DA8420ED0164D4E
:10147000A8420BD0154DA84208D0154DA84205D062
:10148000144DA84202D0144DA84203D122F4407555
:10149000CA682A4302608A68C2620A688262984205
:1014A00001D0A04201D10969016301214161F0BD70
:1014B000000001400004004000080040000C004013
:1014C0000004014000400140004401400048014048
:1014D00000180040001C00400020004010B501230F
:1014E000046A8B409C430462036A8A40134303628C
:1014F00010BD10B5846842EA032224F47F440A43F5
:101500002243826010BD826822F070020A4342F0DA
:10151000070181607047000030B5026A22F00102C5
:101520000262026A436884690D6824F073042543EB
:1015300022F002048A6822430B4CA04202D00B4CDA
:10154000A0420BD122F00804CA6823F4407322435E
:101550004C6922F004021C438B692343436085617C
:1015600049684163026230BD00000140000401404F
:1015700030B5026A22F010020262026A436884698E
:101580000D6824F4E64444EA05248D6822F0200224
:1015900042EA05120D4DA84202D00D4DA8420ED1CF
:1015A000CD6822F0800242EA05124D6923F44063BF
:1015B00043EA85038D6922F0400243EA85034360D4
:1015C000846149688163026230BD0000000001400F
:1015D0000004014030B5026A22F480720262036A9C
:1015E0004268C46923F4007324F073050C682C432B
:1015F0008D6843EA05230D4DA84202D00C4DA84248
:101600000ED1CD6823F4006343EA05234D6922F42B
:10161000405242EA05128D6923F4806342EA0512C2
:101620004260C4614968C163036230BD000001408B
:101630000004014030B5026A22F480520262046A5A
:101640004268C3690D6823F4E64343EA05238D68C5
:1016500024F4005444EA0534084DA84202D0084D51
:10166000A84204D14D6922F4804242EA85124260C8
:10167000C36149680164046230BD0000000001409C
:101680000004014010B5036A046A24F001040462F6
:10169000846924F0F00444EA021423F00A020A43A5
:1016A0008461026210BD10B5036A23F01003036267
:1016B0008369046A23F4704343EA023224F0A003EE
:1016C00043EA01118261016210BD00002DE9F04181
:1016D00004460068016921F44052E1681143016148
:1016E0002168C86849F20C6290432369A268E569E1
:1016F0001A4363692B431A430243CA60216848694D
:1017000020F44072A06910434861E1696425B1F595
:10171000004F9748974A21684FF032083FD09142D6
:1017200001D081427CD1FFF739F800EBC00101EB19
:10173000001061688900B0FBF1F6FFF72FF800EBAD
:10174000C00101EB001061688900B0FBF1F0B0FB53
:10175000F5F06FF01801484306EB800108EB01102B
:10176000B0FBF5F000F0F006FFF718F800EBC00151
:1017700001EB001061688900B0FBF1F0B0FBF5F0FF
:1017800006EB0016FFF70AF800EBC00101EB0010B2
:1017900061688900B0FBF1F7FFF700F8D2E09142F1
:1017A00001D081423DD1FEF7F9FF00EBC00101EB12
:1017B000001061684900B0FBF1F0B0FBF5F00601E4
:1017C000FEF7ECFF00EBC00101EB0010616849007F
:1017D000B0FBF1F7FEF7E2FF00EBC00101EB0010F8
:1017E00061684900B0FBF1F0B0FBF5F06FF0180153
:1017F000484307EB800108EBC100B0FBF5F000F0B7
:10180000F80006EB4006FEF7C9FF00EBC00101EB54
:10181000001061684900B0FBF1F7FEF7BFFF3CE044
:1018200055E0FEF7ABFF00EBC00101EB0010616873
:101830004900B0FBF1F0B0FBF5F00601FEF79EFFAA
:1018400000EBC00101EB001061684900B0FBF1F74B
:10185000FEF794FF00EBC00101EB00106168490046
:10186000B0FBF1F0B0FBF5F06FF01801484307EB67
:10187000800108EBC100B0FBF5F000F0F80006EBCA
:101880004006FEF77BFF00EBC00101EB0010616832
:101890004900B0FBF1F7FEF771FF00EBC00101EB6F
:1018A000001061684900B0FBF1F0B0FBF5F06FF09B
:1018B0001801484307EB800108EBC100B0FBF5F0CD
:1018C00000F00700216830448860BDE8F081FEF731
:1018D00055FF00EBC00101EB001061688900B0FB0F
:1018E000F1F6FEF74BFF00EBC00101EB0010616861
:1018F0008900B0FBF1F0B0FBF5F06FF01801484340
:1019000006EB800108EB0110B0FBF5F000F0F006EB
:10191000FEF734FF00EBC00101EB001061688900A5
:10192000B0FBF1F0B0FBF5F006EB0016FEF726FF7A
:1019300000EBC00101EB001061688900B0FBF1F71A
:10194000FEF71CFF00EBC00101EB0010616889008D
:10195000B0FBF1F0B0FBF5F06FF01801484307EB76
:10196000800108EB0110B0FBF5F000F00F00A9E7D3
:101970000014014000100140FEE702E008C8121FF9
:1019800008C1002AFAD170477047002001E001C168
:10199000121F002AFBD17047FEF790FDFFF7BEFC37
:1019A000FFF7E2FBFFF788FCFFF704FCFFF760FCA2
:1019B000FEE700000000000000000102030406072B
:1019C000080900000000010203040000EC190008EF
:1019D00000000020180000007A190008041A00080E
:1019E00018000020B80400008A1900080000E8036D
:1019F00000000000010000001000000000000000D6
:041A00000024F400CA
:04000005080001AD41
:00000001FF
