:020000040800F2
:1000000000040020C1010008110200080D020008D0
:100010000F020008090200084D030008000000005C
:1000200000000000000000000000000015020008B1
:100030000B0200080000000013020008ED02000897
:10004000DB010008DB010008DB010008DB01000820
:10005000DB010008DB010008DB010008DB01000810
:10006000DB010008DB010008DB010008DB01000800
:10007000DB010008DB010008DB010008DB010008F0
:10008000DB010008DB010008DB010008DB010008E0
:10009000DB010008DB010008DB010008DB010008D0
:1000A000DB010008DB010008DB010008DB010008C0
:1000B000DB010008DB010008DB010008DB010008B0
:1000C000DB010008DB010008DB010008DB010008A0
:1000D000DB010008DB010008DB010008DB01000890
:1000E000DB010008DB010008DB010008DB01000880
:1000F000DB010008DB010008DB010008DB01000870
:10010000DB010008DB010008DB010008DB0100085F
:10011000DB010008DB010008DB010008DB0100084F
:10012000DB010008DB010008DB010008DB0100083F
:10013000DB010008DB010008DB010008DB0100082F
:10014000DB010008DB010008DB010008DB0100081F
:10015000DB010008DB010008DB010008DB0100080F
:10016000DB010008DB010008DB010008DB010008FF
:10017000DB010008DB010008DB010008DB010008EF
:10018000DB010008DB010008DB010008DB010008DF
:10019000DB010008DB010008DB010008DB010008CF
:1001A000DB010008DB010008DB010008DFF80CD0F0
:1001B00000F018F8004800476D0300080004002014
:1001C0000648804706480047FEE7FEE7FEE7FEE7F1
:1001D000FEE7FEE7FEE7FEE7FEE7FEE7F1020008C6
:1001E000AD010008064C074D06E0E06840F0010351
:1001F00094E8070098471034AC42F6D3FFF7DAFFD3
:100200007003000880030008FEE77047FEE7FEE782
:1002100070477047704700001CB5002101910091A4
:100220002E4A106840F4803010604FF4A0431068EC
:1002300000F4003000900198401C0190009810B923
:1002400001989842F3D11068800302D501200090F4
:1002500000E00091009801283FD12048403001681B
:1002600041F0805101601E49086840F44040086038
:100270001A48083003680360036843F400430360CE
:10028000036843F4A0530360041F164B23601368F4
:1002900043F08073136013689B01FCD50A6842F435
:1002A00080320A604A68D203FCD50A6842F4003200
:1002B0000A604A689203FCD50B4A40F2057111604E
:1002C000016821F003010160016841F00201016051
:1002D0000168C1F381010229FAD11CBD0038024036
:1002E00000700040195A4007003C0240704700006F
:1002F00010B51248016841F47001016010480168AE
:1003000041F0010101600E4A0021083211600268CB
:100310000C4B1A400260031D0B4A1A60026822F45B
:100320008022026006480C300160FFF775FF034928
:100330004FF000608039086010BD000088ED00E0DB
:1003400000380240FFFFF6FE10300024FEE702E016
:1003500008C8121F08C1002AFAD170477047002050
:1003600001E001C1121F002AFBD17047FEE7000027
:100370008003000800000020000400005E03000865
:04000005080001AD41
:00000001FF
