:020000040800F2
:1000000018040020C1010008110400080D040008B4
:100010000F0400080902000879060008000000002B
:10002000000000000000000000000000CD040008F7
:100030000B0200080000000091040008D105000830
:10004000DB010008DB010008DB010008DB01000820
:10005000DB010008DB010008DB010008DB01000810
:1000600091020008BD020008DB010008DB01000866
:10007000DB010008DB010008DB010008DB010008F0
:10008000DB010008DB010008DB010008DB010008E0
:10009000DB010008DB010008DB010008DB010008D0
:1000A000DB010008DB010008DB010008DB010008C0
:1000B000DB010008DB010008DB010008DB010008B0
:1000C000DB010008DB010008DB010008DB010008A0
:1000D000DB010008DB010008DB010008DB01000890
:1000E00061020008DB010008DB010008DB010008F9
:1000F000DB010008DB010008DB010008DB01000870
:10010000DB010008DB010008DB010008DB0100085F
:10011000DB010008DB010008DB010008DB0100084F
:10012000DB010008DB010008DB010008DB0100083F
:10013000DB010008DB010008DB010008DB0100082F
:10014000DB010008DB010008DB010008DB0100081F
:10015000DB010008DB010008DB010008DB0100080F
:10016000DB010008DB010008DB010008DB010008FF
:10017000DB010008DB010008DB010008DB010008EF
:10018000DB010008DB010008DB010008DB010008DF
:10019000DB010008DB010008DB010008DB010008CF
:1001A000DB010008DB010008DB010008DFF80CD0F0
:1001B00000F018F8004800477907000818040020EC
:1001C0000648804706480047FEE7FEE7FEE7FEE7F1
:1001D000FEE7FEE7FEE7FEE7FEE7FEE71D06000896
:1001E000AD010008064C074D06E0E06840F0010351
:1001F00094E8070098471034AC42F6D3FFF7DAFFD3
:100200008C070008AC070008FEE7704701B50348FB
:100210000099016001680029FCD108BD140000208C
:1002200008B54FF4A06000F029F908208DF800000F
:1002300001208DF8010000218DF802108DF80300D7
:10024000684600F0E7F809208DF80000684600F0E5
:10025000E1F828208DF80000684600F0DBF808BDC2
:1002600010B54FF40054204600F044F800280BD09D
:100270001E20FFF7CBFF0221044800F0BDF8204606
:10028000BDE8104000F030B810BD0000000402408E
:1002900010B5042000F02EF800280BD01E20FFF728
:1002A000B5FF0321044800F0A7F8BDE81040042082
:1002B00000F01AB810BD00000004024010B508207C
:1002C00000F018F800280BD01E20FFF79FFF012137
:1002D000044800F091F8BDE81040082000F004B890
:1002E00010BD000000040240014908607047000092
:1002F000143C014001460020024A12680A4200D024
:1003000001207047143C014030B51B4A83790168D5
:10031000002B2AD013688B431360111D0B680468EF
:10032000A3430B60017911440B68046823430B60FD
:10033000114C08342168036899432160231D196812
:100340000568A94319604179102905D011440A684C
:10035000006802430A6030BD2168026811432160D1
:10036000196800680143196030BD007910440268C3
:100370008A43026030BD0000003C01402DE9F0419D
:10038000002201274FF0030C07FA02F50B682B40FF
:10039000AB422CD1066853000CFA03F4A643066066
:1003A0000E79D0F800809E4046EA080606600E7975
:1003B000012E01D0022E12D18668A64386604E79A6
:1003C000D0F808809E4046EA080686604668AE433C
:1003D000466045688E799640B6B235434560C5683B
:1003E000A543C560CC799C40C3681C43C460521CC3
:1003F000102AC9D3BDE8F08142694A404261704782
:10040000002A01D00183704741837047FEE7FEE771
:100410007047000030B50F23C27801250178002A0B
:100420001FD0154A126802F4E062C2F5E062C2F31E
:100430000722C2F10404D3404278A24084781C40D1
:100440001443220101F1E02181F80024007800F03A
:100450001F018D404009800000F1E020C0F80051EC
:1004600030BD01F01F0085404809800000F1E02008
:10047000C0F8805130BD00000CED00E00249084397
:1004800002490860704700000000FA050CED00E02A
:1004900070470000054A002903D01168014311602C
:1004A0007047116881431160704700003038024086
:1004B000054A002903D01168014311607047116893
:1004C00081431160704700004438024070470000CB
:1004D00010B58A07120F0F23934021F00304064939
:1004E000214401F608010C689C430C600B689040A5
:1004F00003430B6010BD0000003001401CB500211B
:10050000019100912E4A106840F4803010604FF441
:10051000A043106800F4003000900198401C019046
:10052000009810B901989842F3D11068800302D561
:100530000120009000E00091009801283FD1204860
:100540004030016841F0805101601E49086840F464
:10055000404008601A48083003680360036843F4A9
:1005600000430360036843F4A0530360041F164B69
:100570002360136843F08073136013689B01FCD5FC
:100580000A6842F480320A604A68D203FCD50A68DD
:1005900042F400320A604A689203FCD50B4A40F2EA
:1005A00005711160016821F003010160016841F0EB
:1005B000020101600168C1F381010229FAD11CBD69
:1005C0000038024000700040195A4007003C0240C9
:1005D00002480168491E01607047000014000020B5
:1005E0000C484FF47A710068B0FBF1F0401EB0F196
:1005F000807F01D3012009E04FF0E0214861064AE5
:10060000002010708861072008610020002800D0B9
:10061000FEE770470000002023ED00E010B512480F
:10062000016841F4700101601048016841F0010166
:1006300001600E4A00210832116002680C4B1A401A
:100640000260031D0B4A1A60026822F480220260D5
:1006500006480C300160FFF751FF03494FF000607E
:100660008039086010BD000088ED00E000380240CD
:10067000FFFFF6FE10300024FEE702E008C8121F5C
:1006800008C1002AFAD170477047002001E001C17B
:10069000121F002AFBD170471CB501218803FFF708
:1006A00007FFFFF7BDFD02210720FFF711FF042020
:1006B000009000208DF804000C208DF8050001202A
:1006C0008DF806006846FFF71FFE03210720FFF79D
:1006D000FFFE082000906846FFF716FE0D2102205D
:1006E000FFF7F6FE4FF4005000906846FFF70CFE4F
:1006F0001CBD00001CB501218420FFF7CBFE0420A7
:10070000009000208DF8040001208DF80700094CAE
:1007100069462046FFF732FE0821009169462046CF
:10072000FFF72CFE4FF40050009069460248FFF797
:1007300025FE1CBD001C0240000802401CB5012122
:100740000220FFF7A7FE0320009001218DF804107E
:1007500000228DF806208DF807108DF80500054C55
:1007600069462046FFF70AFE002203212046FFF7D4
:1007700047FE1CBD00040240FFF7E0FFFFF730FF1B
:10078000FFF7B8FFFFF788FFFEE70000AC0700089F
:1007900000000020180000007A060008C4070008C6
:1007A00018000020000400008A0600080095BA0A1C
:1007B0000000000000000000010203040607080911
:0407C0000000000035
:04000005080001AD41
:00000001FF
