:020000040800F2
:1000000058040020C1010008630E0008210D0008FB
:10001000610E0008CD0200082D120008000000004B
:10002000000000000000000000000000870E000833
:10003000CF02000800000000850E0008890E0008AD
:10004000DB010008DB010008DB010008DB01000820
:10005000DB010008DB010008D1020008DB01000819
:10006000DF020008E5020008DB010008DB010008F0
:10007000DB010008DB010008DB010008DB010008F0
:10008000DB010008DB010008DB010008DB010008E0
:10009000DB010008DB010008DB010008DB010008D0
:1000A000DB010008DB010008DB010008DB010008C0
:1000B000DB010008DB010008DB010008DB010008B0
:1000C000DB010008DB010008DB010008DB010008A0
:1000D000DB010008DB010008DB010008DB01000890
:1000E000D7020008DB010008DB010008DB01000883
:1000F000DB010008DB010008DB010008DB01000870
:10010000DB010008DB010008DB010008DB0100085F
:10011000DB010008DB010008DB010008DB0100084F
:10012000DB010008DB010008DB010008DB0100083F
:10013000DB010008DB010008DB010008DB0100082F
:10014000DB010008DB010008DB010008DB0100081F
:10015000DB010008DB010008DB010008DB0100080F
:10016000DB010008DB010008DB010008DB010008FF
:10017000DB010008DB010008DB01000800000000D3
:10018000DB010008DB010008DB010008DB010008DF
:10019000DB010008DB010008DB010008DB010008CF
:1001A000DB010008DB010008DB010008DFF80CD0F0
:1001B00000F07AF800480047951200085804002023
:1001C0000648804706480047FEE7FEE7FEE7FEE7F1
:1001D000FEE7FEE7FEE7FEE7FEE7FEE72D0F00087D
:1001E000AD0100082DE9F05F0546002092469B46D0
:1001F00088460646814640241BE02846414647463D
:10020000224600F041F853465A46C01A914110D395
:1002100011461846224600F028F82D1A67EB01080F
:100220004F4622460120002100F01FF817EB00097D
:100230004E41201EA4F10104DFDC484631462A4627
:100240004346BDE8F09FD2B201E000F8012B491E01
:10025000FBD270470022F6E710B513460A46044663
:100260001946FFF7F0FF204610BD202A04DB203A94
:1002700000FA02F1002070479140C2F1200320FAF9
:1002800003F3194390407047202A04DB203A21FAF7
:1002900002F00021704721FA02F3D040C2F120029F
:1002A0009140084319467047064C074D06E0E06848
:1002B00040F0010394E8070098471034AC42F6D3AD
:1002C000FFF778FFDC120008FC120008FEE7704719
:1002D000012000F059B84FF4005000F055B8042048
:1002E00000F052B8082000F04FB872B6FEE70000E8
:1002F00010B54FF47A71491EFDD1012812D0164A6B
:1003000004281FD0082815D04FF40051884221D16D
:10031000124800F02BF900281CD111A0BDE81040B4
:1003200000F086BF0121104800F020F9002811D00C
:100330000EA0F3E70821104600F018F9002809D1B3
:100340000DA0EBE70421104600F010F9002801D1C0
:100350000BA0E3E710BD0000001C024000080240B3
:100360004B455932210D0A0000000240574B5F55A2
:1003700050210D0A000000004B455930210D0A00A4
:100380004B455931210D0A00044910B50A68024253
:1003900002D00860FFF7ACFF10BD0000143C014024
:1003A0002DE9F84FDFF890B100224FF001084FF02F
:1003B000030A4FF00F090BF1040E00BF0B6808FA97
:1003C00002F42340A3426ED14D68022D01D0122DBC
:1003D0000ED1D50800EB850CDCF820505607F70E3F
:1003E00009FA07F6B5430E69BE402E43CCF82060EB
:1003F000066855000F790AFA05FC07F0030726EA9C
:100400000C06AF40374307604E68012E05D0022E20
:1004100003D0112E01D0122E0ED18768CE6827EAA4
:100420000C07AE403E4386604668A6430C79C4F391
:100430000014944034434460C4688E6824EA0C0479
:10044000AE402643C6604C68E4006FD53B4C25683F
:1004500045F480452560246822F0030504F48044B7
:100460000094374C2E19D6F8084895072F0F09FA33
:1004700007F5AC43334DA84201D100252EE0324DA3
:10048000A84201D1012529E0304DA84201D1022521
:1004900024E02F4DA84201D103251FE02D4DA84295
:1004A00002D104251AE041E02B4DA84201D10525D7
:1004B00014E02A4DA84201D106250FE0284DA8429C
:1004C00001D107250AE0274DA84201D1082505E002
:1004D000254DA84201D1092500E00A25BD4025434C
:1004E000C6F80858DBF800405D464E689C43F603AA
:1004F00000D51C432C60DEF8004075464E689C43D6
:10050000B60300D51C432C600B4D08352C684E6893
:100510009C43F60200D51C432C60074D0C352C681B
:100520004E689C43B60200D51C432C60521C102A16
:10053000FFF444AFBDE8F88F003C0140443802406E
:100540000030014000000240000402400008024068
:10055000000C02400010024000140240001802404B
:10056000001C0240002002400024024000690840B4
:1005700000D00120704742694A40426170470AB189
:10058000816170470904FBE70148806870470000FB
:1005900000000020024881680278114481607047A1
:1005A000000000200B4810B5016841F400710160A3
:1005B000016841F480610160016841F4807101606B
:1005C000032000F06FF80F2000F006F800F024F888
:1005D000002010BD003C024070B50D4D04464FF4A4
:1005E0007A712878B1FBF0F00A490968B1FBF0F0A4
:1005F00000F01AFB48B9102C07D200222146501EE9
:1006000000F030F800206C6070BD012070BD00006B
:10061000000000200C0000200B4882B0016841F46B
:1006200080410160006800F4804000900648001F8F
:10063000016841F080510160006800F08050009036
:10064000052002B000F02EB84438024000F01F022E
:10065000012191404009800000F1E020C0F8001124
:1006600070470000F0B40E4B1B680C46C3F3022326
:10067000C3F10705042D00D90425191D072901D24E
:10068000002300E0DB1E012606FA05F1491E214089
:1006900099409E40761E16403143F0BC00F0E2BB0C
:1006A0000CED00E0064900F0070208684FF6FF0372
:1006B000184040EA0220034A1043086070470000D7
:1006C0000CED00E00000FA052DE9F8431748016839
:1006D00041F0805101600068154F00F08050012604
:1006E00000903E64FFF750FF05464FF47A78114CB6
:1006F00005E000BFFFF748FF401B40450DD860688C
:10070000C003F7D57E64FFF73FFF0546464607E086
:10071000FFF73AFF401BB04202D90320BDE8F8833F
:1007200060688003F4D50020F8E7000040380240FC
:1007300000000E42007000402DE9F0470E46050013
:1007400065D0DFF81481D8F80000F7B200F00F0090
:10075000B04207D288F80070D8F8000000F00F000F
:10076000B04254D128683D4C810712D5400703D5CB
:10077000206840F4E05020602878000703D5206806
:1007800040F4604020602068A96820F0F000084331
:1007900020602878C0072DD03049686808390128C2
:1007A00012D0022813D0032811D009688907002924
:1007B0002DDA216821F0030101432160FFF7E4FEF7
:1007C000814641F2883A0EE009688903EFE709683B
:1007D0008901ECE7FFF7D8FEA0EB0901514502D9EA
:1007E0000320BDE8F0872068696800F00C00B0EBDA
:1007F000810FEFD1D8F80010404601F00F01B1424F
:1008000007D90770006800F00F00B04201D0012046
:10081000E7E72878400705D52068E96820F4E0502C
:10082000084320602878000706D52068296920F44D
:10083000604040EAC100206000F036F82168084AB4
:10084000C1F30311515CC840064908600F20FFF74F
:10085000C3FE0020C5E70000003C0240083802400B
:10086000C41200080C00002004480549006809680B
:10087000044AC1F38221515CC84070470C0000203B
:1008800008380240D4120008044805490068096885
:10089000044AC1F34231515CC84070470C0000204B
:1008A00008380240D4120008154810B5006810F04E
:1008B0000C02144813D01449042A0FD0082A0ED170
:1008C0000F4C241F2268236802F03F025B0207D509
:1008D0002068C0F38810A0FB010106E0084610BDA7
:1008E0002168C1F38811A1FB00010023FFF77AFC06
:1008F0002168C1F30141491C4900B0FBF1F010BD72
:10090000083802400024F40040787D012DE9F84FBA
:10091000050076D02878DFF8F8B2BE4CC00749D081
:10092000DBF800105846C1F38101012908D00068A6
:10093000C0F3810002280AD1201D0068400206D5BC
:100940002068800336D568680028E2D032E0686805
:10095000B0F5803F10D0B0F5A02F206810D020F463
:1009600080302060206820F4802020606868A0B17A
:10097000FFF70AFE06460CE0206840F48030F4E7FA
:1009800040F480202060F7E7FFF7FEFD801B64281D
:1009900073D820688003F7D50CE0FFF7F5FD064615
:1009A00005E000BFFFF7F0FD801B6428F0D8206849
:1009B0008003F7D42878DFF8608280074FF00009C1
:1009C0003ED5DBF80010584611F00C0F09D0006836
:1009D000C0F3810002280BD18D48001F006840023F
:1009E00006D42068800715D5E868012809D111E0F0
:1009F000E868B8B10120C8F80000FFF7C5FD064659
:100A000005E002E1FFF7C0FD801B0228C0D8206886
:100A10008007F7D52068296920F0F80040EAC10076
:100A200020600DE0C8F80090FFF7AEFD064604E038
:100A3000FFF7AAFD801B02281FD820688007F7D483
:100A40002878000722D5724E744869696C3671B1F6
:100A500001210160FFF798FD074604E0FFF794FDD0
:100A6000C01B022809D830688007F7D50EE0C0F80F
:100A70000090FFF789FD074605E083E0FFF784FD5E
:100A8000C01B02287ED830688007F7D4287840073A
:100A900068D5DFF87CA100270AF1380ADAF80000EF
:100AA000C0000BD4DAF8001041F08051CAF80010F1
:100AB000DAF80000012700F080500090584E3068AE
:100AC000C00510D4306840F480703060FFF75CFDE2
:100AD000009005E0FFF758FD0099401A022851D810
:100AE0003068C005F6D54A4EA868683601280FD090
:100AF0000528306810D020F001003060306820F008
:100B000004003060A868B8B1FFF73EFD00900FE028
:100B1000306840F00100F4E740F004003060F7E78F
:100B2000FFF732FD0099411A41F28830814264D8C2
:100B300030688007F4D50EE0FFF726FD009007E04F
:100B4000FFF722FD0099411A41F28830814254D8C2
:100B500030688007F4D42FB1DAF8001021F080510A
:100B6000CAF80010A869C0B3DBF80010C1F3810116
:100B700002294AD00228484607D0C8F86000FFF78B
:100B800003FD00E039E005463AE04746C8F860005A
:100B9000FFF7FAFC064604E0FFF7F6FC801B02288C
:100BA0002BD820688001F7D4D5E907010843A96A4A
:100BB0001C4A490802EB01416A6A41EA8211084372
:100BC00095F82C1040EA01611148001F01600120D6
:100BD0003866FFF7D9FC054605E014E0FFF7D4FCC2
:100BE000401B022809D820688001F7D50BE000BF20
:100BF000FFF7CAFC401B022802D90320BDE8F88F8A
:100C000020688001F4D40020F8E70120F6E7000016
:100C1000083802400038024000004742800E474238
:100C2000007000400000FFFF10B5401EB0F1807F53
:100C300001D3012010BD4FF0E02460610F21601747
:100C400000F010F90020A06107202061002010BDF5
:100C500070B5040004D094F83900002510B106E006
:100C6000012070BD84F83850204600F023F824207D
:100C700084F839002068C16821F40051C160204621
:100C800000F07EF92068016921F49041016120683B
:100C9000416921F02A0141612068C16841F4005195
:100CA000C160E563202084F8390084F83A00002010
:100CB00070BD000010B586B0044614216846FFF7E9
:100CC000C9FA14492068884221D1134800210268DA
:100CD00042F010020260006800F0100005900E481B
:100CE0001438026842F001020260006800F001005E
:100CF00005904FF4C06000900220CDE9010103206F
:100D000003900720049069460448FFF749FB06B0AA
:100D100010BD0000001001404438024000000240B5
:100D2000FEE70000F0B587B014216846FFF792FA9D
:100D300036480025016841F004010160016801F0B6
:100D400004010591016841F080010160016801F032
:100D500080010591016841F001010160016801F025
:100D600001010591016841F0020101600068284F0E
:100D700000F002004FF4005405900022214638464E
:100D8000FFF7FDFB234E6946CDE9004601242248CA
:100D90000294FFF705FB21486946CDE90040022097
:100DA00002901F48FFF7FCFA0C20CDE900066946C7
:100DB00002941C48FFF7F4FA0094CDE90145694616
:100DC00038460395FFF7ECFA002202210620FFF7D0
:100DD00049FC0620FFF73AFC012202210820FFF718
:100DE00041FC0820FFF732FC022211460920FFF7E0
:100DF00039FC0920FFF72AFC032202212820FFF7F3
:100E000031FC2820FFF722FC07B0F0BD303802404B
:100E100000040240000021100008024000001110F0
:100E200000000240001C02400C4810B50A49016055
:100E30004FF4E1314160002181600C22C160C0E9C2
:100E400004128161C161FFF703FF002803D0BDE8F0
:100E50001040FFF74ABA10BD0010014014000020F6
:100E6000FEE7FEE70907090E002806DA00F00F008A
:100E700000F1E02080F8141D704700F1E02080F8B8
:100E80000014704770477047FFF784BB30B593B0CC
:100E900030216846FFF7DEF914210CA8FFF7DAF9D4
:100EA00020480025016841F080510160006800F091
:100EB000805011901C48016841F440410160006875
:100EC000022400F4404011900120009000040190A1
:100ED0008001CDE90640192008904FF4B470CDE9A7
:100EE000090404200B906846FFF710FD08B172B6A4
:100EF000FEE7FFF7E9FB08B172B6FEE70CA90F2089
:100F000081E831004FF4A0500F904FF480501090C2
:100F100005210CA8FFF710FC002801D072B6FEE7EF
:100F200013B030BD403802400070004010480168E6
:100F300041F4700101600F48016841F00101016056
:100F40000C4A00210832116002680B4B1A40026003
:100F5000031D0A4A1A60026822F4802202600548D2
:100F60000C30016002495806803908607047000063
:100F700088ED00E000380240FFFFF6FE103000244C
:100F80002DE9F04104460068016921F44052E1680E
:100F9000114301612168C86849F20C6290432369DA
:100FA000A268E5691A4363692B431A430243CA6086
:100FB0002168486920F44072A06910434861E169E2
:100FC0006425B1F5004F9748974A21684FF03208E1
:100FD0003FD0914201D081427CD1FFF755FC00EB1C
:100FE000C00101EB001061688900B0FBF1F6FFF76A
:100FF0004BFC00EBC00101EB001061688900B0FB05
:10100000F1F0B0FBF5F06FF01801484306EB8001FA
:1010100008EB0110B0FBF5F000F0F006FFF734FC30
:1010200000EBC00101EB001061688900B0FBF1F03A
:10103000B0FBF5F006EB0016FFF726FC00EBC00155
:1010400001EB001061688900B0FBF1F7FFF71CFCB1
:10105000D2E0914201D081423DD1FFF715FC00EB77
:10106000C00101EB001061684900B0FBF1F0B0FB7A
:10107000F5F00601FFF708FC00EBC00101EB0010E2
:1010800061684900B0FBF1F7FFF7FEFB00EBC00120
:1010900001EB001061684900B0FBF1F0B0FBF5F026
:1010A0006FF01801484307EB800108EBC100B0FB6B
:1010B000F5F000F0F80006EB4006FFF7E5FB00EB6B
:1010C000C00101EB001061684900B0FBF1F7FFF7C8
:1010D000DBFB3CE055E0FFF7C7FB00EBC00101EB99
:1010E000001061684900B0FBF1F0B0FBF5F00601BB
:1010F000FFF7BAFB00EBC00101EB0010616849008B
:10110000B0FBF1F7FFF7B0FB00EBC00101EB001003
:1011100061684900B0FBF1F0B0FBF5F06FF0180129
:10112000484307EB800108EBC100B0FBF5F000F08D
:10113000F80006EB4006FFF797FB00EBC00101EB60
:10114000001061684900B0FBF1F7FFF78DFB00EB81
:10115000C00101EB001061684900B0FBF1F0B0FB89
:10116000F5F06FF01801484307EB800108EBC10070
:10117000B0FBF5F000F00700216830448860BDE85E
:10118000F081FFF771FB00EBC00101EB001061681B
:101190008900B0FBF1F6FFF767FB00EBC00101EB44
:1011A000001061688900B0FBF1F0B0FBF5F06FF062
:1011B0001801484306EB800108EB0110B0FBF5F085
:1011C00000F0F006FFF750FB00EBC00101EB001050
:1011D00061688900B0FBF1F0B0FBF5F006EB00169A
:1011E000FFF742FB00EBC00101EB001061688900D2
:1011F000B0FBF1F7FFF738FB00EBC00101EB00108B
:1012000061688900B0FBF1F0B0FBF5F06FF01801F8
:10121000484307EB800108EB0110B0FBF5F000F04C
:101220000F00A9E70014014000100140FEE7000094
:10123000014A024900F013B8811200081000002092
:1012400002E008C8121F08C1002AFAD1704770478F
:10125000002001E001C1121F002AFBD170472DE9D7
:10126000F04116460F460446002503E03946B047D4
:10127000641C6D1C20780028F8D12846BDE8F08158
:1012800003490A685206FCD5C2B24A6070470000A2
:10129000001001404FF47A74FFF784F9FFF7F6FD70
:1012A000FFF740FDFFF7C0FD044D054E641EFDD164
:1012B00001212846FFF75FF93446F7E700040240B2
:1012C000FF2C3101000000000000000001020304B7
:1012D000060708090000000001020304FC120008D0
:1012E0000000002014000000401200081013000845
:1012F0001400002044040000501200080100000007
:1013000010000000000000000024F40000000000B5
:04000005080001AD41
:00000001FF
