:020000040800F2
:10000000400900202902000801060008F90500083F
:10001000FD050008D9020008C90C00080000000016
:10002000000000000000000000000000DD070008E4
:10003000210500080000000091060008CD08000816
:10004000430200084302000843020008430200087C
:10005000430200084302000843020008430200086C
:10006000430200084302000843020008430200085C
:10007000430200084302000843020008430200084C
:10008000430200084302000843020008430200083C
:10009000430200084302000843020008430200082C
:1000A000430200084302000843020008430200081C
:1000B000430200084302000843020008430200080C
:1000C00043020008430200084302000843020008FC
:1000D00043020008E909000843020008430200083F
:1000E00043020008430200084302000843020008DC
:1000F00043020008430200084302000843020008CC
:1001000043020008430200084302000843020008BB
:1001100043020008430200084302000843020008AB
:10012000430200084302000843020008430200089B
:10013000430200084302000843020008430200088B
:10014000430200084302000843020008430200087B
:10015000430200084302000843020008430200086B
:10016000430200084302000843020008430200085B
:10017000430200084302000843020008430200084B
:10018000430200084302000800F002F800F03CF8C7
:100190000AA090E8000C82448344AAF10107DA45E2
:1001A00001D100F031F8AFF2090EBAE80F0013F0F8
:1001B000010F18BFFB1A43F0010318472C0B000076
:1001C0004C0B0000103A24BF78C878C1FAD8520707
:1001D00024BF30C830C144BF04680C6070470000C1
:1001E0000023002400250026103A28BF78C1FBD840
:1001F000520728BF30C148BF0B6070471FB500F0E1
:100200006DFD1FBD10B510BD00F033F81146FFF7AE
:10021000F5FF00F05DFD00F051F803B4FFF7F2FFC9
:1002200003BC00F053FD000009488047094800471F
:10023000FEE7FEE7FEE7FEE7FEE7FEE7FEE7FEE796
:10024000FEE7FEE704480549054A064B70470000F3
:10025000D10800088901000840030020400900205F
:1002600040050020400500207047704770477047E8
:100270007047754600F02CF8AE46050069465346B7
:1002800020F00700854618B020B5FFF7DBFFBDE87A
:1002900020404FF000064FF000074FF000084FF0ED
:1002A000000B21F00701AC46ACE8C009ACE8C0097E
:1002B000ACE8C009ACE8C0098D46704710B50446EB
:1002C000AFF300802046BDE81040FFF7A6BF000056
:1002D00000487047E002002000BFFEE739B1084A3D
:1002E0001268012383401A43054B1A6006E0044A52
:1002F0001268012383409A43014B1A607047000043
:100300000074004041B1094A12684FF480538340A1
:100310001A43064B1A6007E0044A12684FF48053F0
:1003200083409A43014B1A607047000000740040FC
:1003300000B58FB00121480500F0ACF94FF06060C6
:1003400000901248019012480290402003900490BF
:10035000002005904FF48060069080000790800098
:1003600008908011099040020A9000200B90032011
:100370000C9000200D900E906946064800F0A4F8FD
:100380000121044800F095F80FB000BD2074004032
:1003900000000020886002401CB50121084600F0E2
:1003A00079F91020009003208DF804008DF80500E5
:1003B00000208DF807006946044800F0B2F82020BC
:1003C00000906946014800F0ACF81CBD00000240F6
:1003D00010B5002400BF08E0094850F8240040EAA6
:1003E0000040074941F82400641C402CF4DBFFF76F
:1003F000D3FF00F021F800F040F8FFF799FF10BD9F
:100400000000002030B5002200230A4C226840F68C
:10041000FE748440A243D1E900452C438D682C43EF
:10042000CD6844EA050303FA00F42243014C22603C
:1004300030BD0000007400401FB50121480700F0E6
:1004400039F9242000900020019002200390002020
:1004500002906946FFF7D6FF01210020FFF73EFF1B
:1004600069461020FFF7CEFF01211020FFF736FF6D
:1004700001210020FFF746FF1FBD0EB501210846F0
:1004800000F018F9132001900020ADF80000ADF83D
:100490000800ADF8020069464FF0804000F062FAB3
:1004A0002021480600F054FA0121880700F044FAA0
:1004B0000EBD21B1026842F00102026003E0026851
:1004C00022F001020260704710B500220268134B4F
:1004D0001A40CC680B6823434C6923438C6923433F
:1004E000CC6923430C6A23434C6A23438C6A23431D
:1004F0004C6B23438C6B23431A430260426922F006
:100500000702D1E90B3423431A4342610B6943606C
:100510004B6883608B68C36010BD00003F801CF097
:100520007047F0B50A4600210023002400BF3DE0DB
:10053000012505FA01F3156805EA03049C4234D14C
:1005400005684F000326BE40B543056015794E008F
:10055000B5400668354305601579012D02D015793F
:10056000022D16D185684F000326BE40B543856035
:1005700055794E00B540866835438560456801264B
:100580008E40B5434560456896798E40B6B2354396
:100590004560C5684F000326BE40B543C560D579A8
:1005A0004E00B540C6683543C560491C1029BFD30D
:1005B000F0BDF0B5002300244D07ED0E02FA05F35F
:1005C000CE1000F1200555F826504E07F70E0F26E5
:1005D000BE40B543CF1000F1200646F82750CE109C
:1005E00000F1200555F8265045EA0304CE1000F12D
:1005F000200545F82640F0BD00BFFEE700BFFEE73E
:100600007047000070B5002100230F22C4781CB38E
:10061000174C246804F4E064C4F5E064C4F30721D3
:10062000C1F10404E3B20A4144789C40E1B2847809
:10063000144021430C07210E0E4C057861550478B7
:1006400004F01F050124AC4005786D11AD0005F1E3
:10065000E025C5F8004109E0047804F01F050124F5
:10066000AC40054D0678761145F8264070BD000077
:100670000CED00E000E400E080E100E0024901430D
:10068000024A1160704700000000FA050CED00E01E
:100690007047000029B1064A12680243044B1A60F1
:1006A00004E0034A12688243014B1A60704700005D
:1006B0003038024029B1064A12680243044B1A60DE
:1006C00004E0034A12688243014B1A60704700003D
:1006D0004038024029B1064A12680243044B1A60AE
:1006E00004E0034A12688243014B1A60704700001D
:1006F00044380240F0B500210022002402250026E3
:100700000223324F3F6807F00C0121B1042905D0C4
:10071000082937D105E02E4F076036E02D4F0760DE
:1007200033E02A4F3F1F3F68C7F38056274F3F1FD4
:100730003F6807F03F036EB1264FB7FBF3F7DFF8D2
:100740008CC0ACF1040CDCF800C0CCF3881C07FBB7
:100750000CF40CE01E4FB7FBF3F7DFF870C0ACF100
:10076000040CDCF800C0CCF3881C07FB0CF4174F1A
:100770003F1F3F68C7F301477F1C7D00B4FBF5F7BF
:10078000076002E0124F076000BF00BF0F4F3F68D5
:1007900007F0F0010909104F7A5C0768D7404760FD
:1007A0000A4F3F6807F4E051890A0B4F7A5C4768AB
:1007B000D7408760054F3F6807F46041490B064FFB
:1007C0007A5C4768D740C760F0BD00000838024037
:1007D0000024F40000127A00070100207047000096
:1007E0000CB50020019000903448006840F480303F
:1007F0003249086000BF3148006800F400300090C2
:100800000198401C0190009818B90198B0F5A04FCC
:10081000F1D12A48006800F4003010B101200090A6
:1008200001E0002000900098012846D12348403084
:10083000006840F08050214940310860204800683D
:1008400040F440401E4908601C48083000681B49BD
:10085000083108600846006840F400400860084617
:10086000006840F4A05008601648091F0860081F7F
:10087000006840F08070091F086000BF0F480068E2
:1008800000F000700028F9D040F205700E490860B1
:100890000A480830006820F0030008490831086061
:1008A0000846006840F00200086000BF03480830B6
:1008B000006800F00C000828F8D10CBD0038024098
:1008C0000070004008544007003C024070470000A0
:1008D00010B51548006840F47000134908601348CB
:1008E000006840F001001149086000200F490831FC
:1008F00008600E4800680E4908400C4908600D4821
:10090000091D0860081F006820F48020091F086086
:10091000002006490C310860FFF762FF4FF00060CD
:1009200001498039086010BD88ED00E000380240C0
:10093000FFFFF6FE1030002421B1028842F00102D0
:10094000028004E002884FF6FE731A40028070476E
:1009500082884FF68F731A40828082880A43828091
:100960007047000000220288184B98420ED0184BA6
:1009700098420BD0B0F1804F08D0164B984205D06A
:10098000154B984202D0154B984204D14FF68F7305
:100990001A404B881A43124B984207D0114B984289
:1009A00004D04FF6FF431A400B891A4302804B686C
:1009B000C3620B880385054B984202D0044B9842D2
:1009C00001D18B7A038601238382704700000140A6
:1009D000000401400004004000080040000C0040FA
:1009E000001000400014004010B540F225511D4891
:1009F00000F098F810B31B4800F061F9C4B21A482F
:100A0000008800F40040C8B91748008800F480400E
:100A100060B10A2C03D000201349088020E012485E
:100A2000008840F400401049088019E00D2C06D1E0
:100A30000D48008840F480400B49088010E00A48C7
:100A40000088C0F30D0009490C5407480088401C79
:100A50000549088008460088C72801DD0020088075
:100A600010BD00000010014004010020180100200A
:100A700021B1828942F40052828104E082894DF6DC
:100A8000FF731A40828170471FB500F027F800F00D
:100A900003F901211020FFF71DFE4FF4E130009013
:100AA0000020ADF80400ADF80600ADF80800ADF880
:100AB0000C000C20ADF80A006946074800F082F8E7
:100AC00001210548FFF7D4FF012240F225510248D9
:100AD00000F052F81FBD0000001001401CB50121BC
:100AE0000846FFF7D7FD072209210D48FFF761FDF2
:100AF00007220A210A48FFF75CFD4FF4C06000900E
:100B000002208DF804008DF8050000208DF8060005
:100B100001208DF8070069460148FFF702FD1CBD62
:100B20000000024070B5024600240023002500208A
:100B300040F66A16B14200D100BFC1F3421501F080
:100B40001F03012606FA03F3012D02D196893340D3
:100B500006E0022D02D1168A334001E0968A334026
:100B60000C12012606FA04F41688344013B10CB1B5
:100B7000012000E0002070BDF0B5034600240026EF
:100B80000025002040F66A17B94200D100BF184680
:100B9000C1F3421401F01F06012707FA06F5012CE4
:100BA00001D10C3004E0022C01D1103000E01430EF
:100BB0001AB107682F43076002E00768AF43076078
:100BC000F0BD00002DE9FF4705460E460024A14672
:100BD00000BFA046B08900B100BF2C8A24F4405465
:100BE000F08804432C82AC8941F20C608443B088C5
:100BF00031890843718908430443AC81AC8A24F4E9
:100C00004074B0890443AC826846FFF773FD204806
:100C1000854202D01F48854202D1DDF80C9001E0E8
:100C2000DDF80890A88900F4004040B109EBC90044
:100C300000EB091031684900B0FBF1F707E009EB60
:100C4000C90000EB091031688900B0FBF1F764209E
:100C5000B7FBF0F004012009642101FB1078A8899A
:100C600000F4004040B1322000EBC800B0FBF1F0CE
:100C700000F00700044308E0322000EB0810642174
:100C8000B0FBF1F000F00F0004432C81BDE8FF87BA
:100C9000001001400014014008B54FF4C060FFF798
:100CA000EDFC25208DF8000001208DF801008DF865
:100CB00002008DF803006846FFF7A4FC08BD01465A
:100CC0008888C0F30800704700BFFEE700BF704788
:100CD000FFF7DAFEFFF77CFB00BFFEE74FF0407046
:100CE000E1EE100A70470000080D00080000002027
:100CF00018010000C4010008200E0008180100209F
:100D000028080000E0010008C90800009009000060
:100D1000530A0000100B0000C50B0000720C00000D
:100D2000130D0000A80D00002F0E0000A70E0000FC
:100D30000E0F0000640F0000A80F0000D90F000084
:100D4000F60F0000FF0F0000F60F0000D90F0000A3
:100D5000A80F0000640F00000E0F0000A70E000097
:100D60002F0E0000A80D0000130D0000720C0000F3
:100D7000C50B0000100B0000530A00009009000092
:100D8000C9080000000800003707000070060000D6
:100D9000AD050000F00400003B0400008E030000DD
:100DA000ED02000058020000D101000059010000CE
:100DB000F20000009C000000580000002700000026
:100DC0000A000000000000000A00000027000000E8
:100DD000580000009C000000F200000059010000D3
:100DE000D101000058020000ED0200008E03000057
:100DF0003B040000F0040000AD0500007006000098
:100E0000370700000008000000000000000000009C
:100E100000000001020304010203040607080900A0
:040000050800018965
:00000001FF
