:020000040800F2
:1000000058040020C1010008EF0E00082B0E000864
:10001000ED0E0008CD020008E1130008000000000A
:10002000000000000000000000000000130F0008A6
:10003000CF02000800000000110F0008150F000893
:10004000DB010008DB010008DB010008DB01000820
:10005000DB010008DB010008DB010008DB01000810
:10006000DB010008DB010008DB010008DB01000800
:10007000DB010008DB010008DB010008DB010008F0
:10008000DB010008DB010008DB010008DB010008E0
:10009000DB010008DB010008DB010008DB010008D0
:1000A000DB010008DB010008DB010008DB010008C0
:1000B000DB010008DB010008DB010008DB010008B0
:1000C000DB010008DB010008DB010008DB010008A0
:1000D000DB010008D5130008DB010008DB01000884
:1000E000DB010008DB010008DB010008DB01000880
:1000F000DB010008DB010008DB010008DB01000870
:10010000DB010008DB010008DB010008DB0100085F
:10011000DB010008DB010008DB010008DB0100084F
:10012000DB010008DB010008DB010008DB0100083F
:10013000DB010008DB010008DB010008DB0100082F
:10014000DB010008DB010008DB010008DB0100081F
:10015000DB010008DB010008DB010008DB0100080F
:10016000DB010008DB010008DB010008DB010008FF
:10017000DB010008DB010008DB01000800000000D3
:10018000DB010008DB010008DB010008DB010008DF
:10019000DB010008DB010008DB010008DB010008CF
:1001A000DB010008DB010008DB010008DFF80CD0F0
:1001B00000F07AF80048004749140008580400206D
:1001C0000648804706480047FEE7FEE7FEE7FEE7F1
:1001D000FEE7FEE7FEE7FEE7FEE7FEE7B90F0008F1
:1001E000AD0100082DE9F05F0546002092469B46D0
:1001F00088460646814640241BE02846414647463D
:10020000224600F041F853465A46C01A914110D395
:1002100011461846224600F028F82D1A67EB01080F
:100220004F4622460120002100F01FF817EB00097D
:100230004E41201EA4F10104DFDC484631462A4627
:100240004346BDE8F09FD2B201E000F8012B491E01
:10025000FBD270470022F6E710B513460A46044663
:100260001946FFF7F0FF204610BD202A04DB203A94
:1002700000FA02F1002070479140C2F1200320FAF9
:1002800003F3194390407047202A04DB203A21FAF7
:1002900002F00021704721FA02F3D040C2F120029F
:1002A0009140084319467047064C074D06E0E06848
:1002B00040F0010394E8070098471034AC42F6D3AD
:1002C000FFF778FF9C140008BC140008FEE7704795
:1002D00072B6FEE790F83510022903D080214165FF
:1002E00001207047052180F835100068016821F071
:1002F000010101600020704770B5044600F0FEF86F
:100300000546601C02D004480078044400F0F6F86A
:10031000401BA042FAD370BD040000202DE9F84F25
:10032000DFF890B100224FF001084FF0030A4FF0C0
:100330000F090BF1040E00BF0B6808FA02F423400A
:10034000A3426ED14D68022D01D0122D0ED1D508D9
:1003500000EB850CDCF820505607F70E09FA07F67B
:10036000B5430E69BE402E43CCF8206006685500A8
:100370000F790AFA05FC07F0030726EA0C06AF40DE
:10038000374307604E68012E05D0022E03D0112E90
:1003900001D0122E0ED18768CE6827EA0C07AE4036
:1003A0003E4386604668A6430C79C4F3001494402B
:1003B00034434460C4688E6824EA0C04AE4026438B
:1003C000C6604C68E4006FD53B4C256845F4804519
:1003D0002560246822F0030504F480440094374C1F
:1003E0002E19D6F8084895072F0F09FA07F5AC43E0
:1003F000334DA84201D100252EE0324DA84201D153
:10040000012529E0304DA84201D1022524E02F4DDD
:10041000A84201D103251FE02D4DA84202D1042599
:100420001AE041E02B4DA84201D1052514E02A4DE8
:10043000A84201D106250FE0284DA84201D1072589
:100440000AE0274DA84201D1082505E0254DA84224
:1004500001D1092500E00A25BD402543C6F808580A
:10046000DBF800405D464E689C43F60300D51C4314
:100470002C60DEF8004075464E689C43B60300D5FC
:100480001C432C600B4D08352C684E689C43F602CB
:1004900000D51C432C60074D0C352C684E689C43DE
:1004A000B60200D51C432C60521C102AFFF444AF46
:1004B000BDE8F88F003C0140443802400030014064
:1004C000000002400004024000080240000C02400C
:1004D000001002400014024000180240001C0240BC
:1004E000002002400024024042694A4042617047B5
:1004F0000AB1816170470904FBE700000148806888
:10050000704700000400002002488168027811440E
:1005100081607047040000200B4810B5016841F469
:1005200000710160016841F480610160016841F47B
:1005300080710160032000F06DF80F2000F006F8D4
:1005400000F024F8002010BD003C024070B50D4DB5
:1005500004464FF47A712878B1FBF0F00A49096833
:10056000B1FBF0F000F018FB48B9102C07D20022C4
:100570002146501E00F02EF800206C6070BD012056
:1005800070BD000004000020100000200A4808B5DB
:10059000016841F480410160006800F480400090EF
:1005A0000548001F016841F080510160006800F0BB
:1005B0008050009008BD00004438024000F01F0247
:1005C000012191404009800000F1E020C0F80011B5
:1005D00070470000F0B40E4B1B680C46C3F30223B7
:1005E000C3F10705042D00D90425191D072901D2DF
:1005F000002300E0DB1E012606FA05F1491E21401A
:1006000099409E40761E16403143F0BC00F070BC0D
:100610000CED00E0064900F0070208684FF6FF0302
:10062000184040EA0220034A104308607047000067
:100630000CED00E00000FA052DE9F84317480168C9
:1006400041F0805101600068154F00F08050012694
:1006500000903E64FFF752FF05464FF47A78114C44
:1006600005E000BFFFF74AFF401B40450DD860681A
:10067000C003F7D57E64FFF741FF0546464607E015
:10068000FFF73CFF401BB04202D90320BDE8F883CE
:1006900060688003F4D50020F8E70000403802408D
:1006A00000000E42007000402DE9F0470E460500A4
:1006B00065D0DFF81481D8F80000F7B200F00F0021
:1006C000B04207D288F80070D8F8000000F00F00A0
:1006D000B04254D128683D4C810712D5400703D55C
:1006E000206840F4E05020602878000703D5206897
:1006F00040F4604020602068A96820F0F0000843C2
:1007000020602878C0072DD0304968680839012852
:1007100012D0022813D0032811D0096889070029B4
:100720002DDA216821F0030101432160FFF7E6FE85
:10073000814641F2883A0EE009688903EFE70968CB
:100740008901ECE7FFF7DAFEA0EB0901514502D978
:100750000320BDE8F0872068696800F00C00B0EB6A
:10076000810FEFD1D8F80010404601F00F01B142DF
:1007700007D90770006800F00F00B04201D00120D7
:10078000E7E72878400705D52068E96820F4E050BD
:10079000084320602878000706D52068296920F4DE
:1007A000604040EAC100206000F036F82168084A45
:1007B000C1F30311515CC840064908600F20FFF7E0
:1007C000C5FE0020C5E70000003C0240083802409A
:1007D00084140008100000200448054900680968D6
:1007E000044AC1F38221515CC840704710000020C8
:1007F0000838024094140008044805490068096854
:10080000044AC1F34231515CC840704710000020D7
:100810000838024094140008154810B5006810F01C
:100820000C02144813D01449042A0FD0082A0ED100
:100830000F4C241F2268236802F03F025B0207D599
:100840002068C0F38810A0FB010106E0084610BD37
:100850002168C1F38811A1FB00010023FFF7C2FC4E
:100860002168C1F30141491C4900B0FBF1F010BD02
:10087000083802400024F40040787D012DE9F84F4B
:10088000050076D02878DFF8F8B2BE4CC00749D012
:10089000DBF800105846C1F38101012908D0006837
:1008A000C0F3810002280AD1201D0068400206D54D
:1008B0002068800336D568680028E2D032E0686896
:1008C000B0F5803F10D0B0F5A02F206810D020F4F4
:1008D00080302060206820F4802020606868A0B10B
:1008E000FFF70CFE06460CE0206840F48030F4E789
:1008F00040F480202060F7E7FFF700FE801B6428AB
:1009000073D820688003F7D50CE0FFF7F7FD0646A3
:1009100005E000BFFFF7F2FD801B6428F0D82068D7
:100920008003F7D42878DFF8608280074FF0000951
:100930003ED5DBF80010584611F00C0F09D00068C6
:10094000C0F3810002280BD18D48001F00684002CF
:1009500006D42068800715D5E868012809D111E080
:10096000E868B8B10120C8F80000FFF7C7FD0646E7
:1009700005E002E1FFF7C2FD801B0228C0D8206815
:100980008007F7D52068296920F0F80040EAC10007
:1009900020600DE0C8F80090FFF7B0FD064604E0C7
:1009A000FFF7ACFD801B02281FD820688007F7D412
:1009B0002878000722D5724E744869696C3671B187
:1009C00001210160FFF79AFD074604E0FFF796FD5D
:1009D000C01B022809D830688007F7D50EE0C0F8A0
:1009E0000090FFF78BFD074605E083E0FFF786FDEB
:1009F000C01B02287ED830688007F7D428784007CB
:100A000068D5DFF87CA100270AF1380ADAF800007F
:100A1000C0000BD4DAF8001041F08051CAF8001081
:100A2000DAF80000012700F080500090584E30683E
:100A3000C00510D4306840F480703060FFF75EFD70
:100A4000009005E0FFF75AFD0099401A022851D89E
:100A50003068C005F6D54A4EA868683601280FD020
:100A60000528306810D020F001003060306820F098
:100A700004003060A868B8B1FFF740FD00900FE0B7
:100A8000306840F00100F4E740F004003060F7E720
:100A9000FFF734FD0099411A41F28830814264D851
:100AA00030688007F4D50EE0FFF728FD009007E0DE
:100AB000FFF724FD0099411A41F28830814254D851
:100AC00030688007F4D42FB1DAF8001021F080519B
:100AD000CAF80010A869C0B3DBF80010C1F38101A7
:100AE00002294AD00228484607D0C8F86000FFF71C
:100AF00005FD00E039E005463AE04746C8F86000E9
:100B0000FFF7FCFC064604E0FFF7F8FC801B022818
:100B10002BD820688001F7D4D5E907010843A96ADA
:100B20001C4A490802EB01416A6A41EA8211084302
:100B300095F82C1040EA01611148001F0160012066
:100B40003866FFF7DBFC054605E014E0FFF7D6FC4E
:100B5000401B022809D820688001F7D50BE000BFB0
:100B6000FFF7CCFC401B022802D90320BDE8F88F18
:100B700020688001F4D40020F8E70120F6E70000A7
:100B8000083802400038024000004742800E4742C9
:100B9000007000400000FFFF10B5401EB0F1807FE4
:100BA00001D3012010BD4FF0E02460610F216017D8
:100BB00000F09EF90020A06107202061002010BDF8
:100BC0007047000070B5026804461068D168536928
:100BD00010F00F0F51D003F0010501F4907635436A
:100BE0005DD0C20705D0CA0503D5E26B42F0010211
:100BF000E263420705D5DA0703D0E26B42F0020256
:100C0000E263820705D5DA0703D0E26B42F0040203
:100C1000E263020705D5DA0703D0E26B42F008026F
:100C2000E263E26B002A34D0800604D5880602D540
:100C3000204600F001FA20684069E16BC0F38010A3
:100C400001F008010143204624D000F0E7F92068B4
:100C5000416949061AD5416921F040014161606B43
:100C6000A0B11B490165606BFFF734FB002810D071
:100C7000606B016DBDE87040084783060FD58B0699
:100C80000DD52046BDE8704000F0D6B92046FFF7EC
:100C900097FF70BDFFF794FF0020E06370BD03066F
:100CA00006D50B0604D52046BDE8704000F060BBB9
:100CB0004006F3D54806F1D5D168204621F0400121
:100CC000D160202184F8391000F0AEF870BD00002A
:100CD0000D10000870B5040004D094F83900002508
:100CE00010B106E0012070BD84F83850204600F0B5
:100CF00023F8242084F839002068C16821F40051C9
:100D0000C160204600F0DEF92068016921F49041BD
:100D100001612068416921F02A0141612068C168B0
:100D200041F40051C160E563202084F8390084F863
:100D30003A00002070BD000010B586B004461421B2
:100D40006846FFF787FA18492068884229D1174872
:100D50000021026842F010020260006800F01000FA
:100D6000059012481438026842F0010202600068DF
:100D700000F0010005904FF4C06000900220CDE922
:100D80000101032003900720049069460848FFF7FB
:100D9000C5FA002211462520FFF71CFC2520FFF78D
:100DA0000DFC06B010BD00000010014044380240A8
:100DB0000000024090F83A30202B1DD1D1B1CAB1C9
:100DC00090F83830012B17D081628285C2850021CE
:100DD000C163222280F83A2080F8381001684A69FD
:100DE00042F001024A610068C16841F49071C1603B
:100DF00000207047012070470220704700680749B3
:100E0000884209D1074906480968007848600122EC
:100E100003490448FFF7CEBF7047000000100140AF
:100E200000000020180000207047FEE730B587B0B2
:100E300014216846FFF70EFA19480024016841F0B2
:100E400004010160016801F004010591016841F0AD
:100E500080010160016801F080010591016841F0A5
:100E600002010160016801F002010591016841F091
:100E70000101016000680B4D00F0010005900022A7
:100E800001212846FFF734FB01210091CDE901142F
:100E9000694628460394FFF741FA07B030BD0000C9
:100EA00030380240000402400E4810B50C49016081
:100EB0004FF4E1314160002181600C22C160C0E942
:100EC00004128161C161FFF705FF08B1FFF700FA65
:100ED000BDE81040012204490248FFF76BBF000043
:100EE000001001401800002000000020FEE7FEE78F
:100EF0000907090E002806DA00F00F0000F1E020D3
:100F000080F8141D704700F1E02080F8001470474D
:100F100070477047FFF7F8BA30B593B03021684694
:100F2000FFF798F914210CA8FFF794F92048002541
:100F3000016841F080510160006800F0805011901C
:100F40001C48016841F4404101600068022400F43B
:100F50004040119001200090000401908001CDE9F3
:100F60000640192008904FF4B470CDE9090404201C
:100F70000B906846FFF782FC08B172B6FEE7FFF7F8
:100F80005BFB08B172B6FEE70CA90F2081E83100C7
:100F90004FF4A0500F904FF48050109005210CA8F2
:100FA000FFF782FB002801D072B6FEE713B030BD18
:100FB00040380240007000401048016841F4700160
:100FC00001600F48016841F0010101600C4A0021F5
:100FD0000832116002680B4B1A400260031D0A4A76
:100FE0001A60026822F48022026005480C30016019
:100FF00002495806803908607047000088ED00E01B
:1010000000380240FFFFF6FE1030002410B5806B60
:101010000021C185C184FFF7D3FD10BD0168CA68F6
:1010200022F49072CA6001684A6922F001024A61A2
:10103000202180F83A10704710B590F83A10222914
:1010400001D0022010BD8168B1F5805F11D0016927
:10105000002901681FD0496801F07F03816A4A1C9A
:1010600082620B70C18D491E0904090CC18518D01C
:1010700026E00269816A002A0268526805D0D2B26D
:101080000A80816A491C8162ECE7C2F308020A8087
:10109000816A891CF7E74A68816A4B1C83620A707F
:1010A000E0E70168CA6822F49072CA6001684A6980
:1010B00022F001024A61202180F83A10FFF79EFEDB
:1010C000002010BD2DE9F04104460068016921F4BB
:1010D0004052E168114301612168C86849F20C621D
:1010E00090432369A268E5691A4363692B431A4355
:1010F0000243CA602168486920F44072A069104325
:101100004861E1696425B1F5004F9748974A216825
:101110004FF032083FD0914201D081427CD1FFF79D
:101120006BFB00EBC00101EB001061688900B0FBB4
:10113000F1F6FFF761FB00EBC00101EB0010616805
:101140008900B0FBF1F0B0FBF5F06FF018014843F7
:1011500006EB800108EB0110B0FBF5F000F0F006A3
:10116000FFF74AFB00EBC00101EB0010616889004A
:10117000B0FBF1F0B0FBF5F006EB0016FFF73CFB1F
:1011800000EBC00101EB001061688900B0FBF1F7D2
:10119000FFF732FBD2E0914201D081423DD1FFF70F
:1011A0002BFB00EBC00101EB001061684900B0FBB4
:1011B000F1F0B0FBF5F00601FFF71EFB00EBC001FC
:1011C00001EB001061684900B0FBF1F7FFF714FB79
:1011D00000EBC00101EB001061684900B0FBF1F0C9
:1011E000B0FBF5F06FF01801484307EB800108EB06
:1011F000C100B0FBF5F000F0F80006EB4006FFF789
:10120000FBFA00EBC00101EB001061684900B0FB84
:10121000F1F7FFF7F1FA3CE055E0FFF7DDFA00EBFC
:10122000C00101EB001061684900B0FBF1F0B0FBB8
:10123000F5F00601FFF7D0FA00EBC00101EB00105A
:1012400061684900B0FBF1F7FFF7C6FA00EBC00197
:1012500001EB001061684900B0FBF1F0B0FBF5F064
:101260006FF01801484307EB800108EBC100B0FBA9
:10127000F5F000F0F80006EB4006FFF7ADFA00EBE2
:10128000C00101EB001061684900B0FBF1F7FFF706
:10129000A3FA00EBC00101EB001061684900B0FB4C
:1012A000F1F0B0FBF5F06FF01801484307EB800157
:1012B00008EBC100B0FBF5F000F0070021683044F6
:1012C0008860BDE8F081FFF787FA00EBC00101EB11
:1012D000001061688900B0FBF1F6FFF77DFA00EBC2
:1012E000C00101EB001061688900B0FBF1F0B0FBB8
:1012F000F5F06FF01801484306EB800108EB011090
:10130000B0FBF5F000F0F006FFF766FA00EBC00165
:1013100001EB001061688900B0FBF1F0B0FBF5F063
:1013200006EB0016FFF758FA00EBC00101EB0010C6
:1013300061688900B0FBF1F7FFF74EFA00EBC001DE
:1013400001EB001061688900B0FBF1F0B0FBF5F033
:101350006FF01801484307EB800108EB0110B0FB68
:10136000F5F000F00F00A9E7001401400010014063
:1013700090F83910212901D0022070478168B1F519
:10138000805F016A0BD04A1C0262026809785160D2
:10139000C18C491E0904090CC1840ED017E00988CC
:1013A0000268C1F30801516001690029016A02D095
:1013B000491C0162ECE7891CFBE70168CA6822F05E
:1013C0008002CA600068C16841F04001C16000202D
:1013D000704700000148FFF7F5BB0000180000202F
:1013E000FEE70000014A024900F013B83514000876
:1013F0001400002002E008C8121F08C1002AFAD118
:1014000070477047002001E001C1121F002AFBD184
:1014100070472DE9F04116460F460446002503E0CB
:101420003946B047641C6D1C20780028F8D1284646
:10143000BDE8F08103490A685206FCD5C2B24A6091
:101440007047000000100140FFF766F8FFF764FDE9
:10145000FFF7ECFCFFF728FD064D4FF47A742046A9
:10146000FEF74AFF01212846FFF73EF802A0FFF7EA
:10147000B9FFF4E7000402407072696E7466210DD2
:101480000A00000000000000000000000102030448
:10149000060708090000000001020304BC1400084C
:1014A0000000002018000000F4130008D414000805
:1014B0001800002040040000041400080000000090
:1014C0000100000010000000000000000024F400F3
:0414D0000000000018
:04000005080001AD41
:00000001FF
