:020000040800F2
:1000000098040020C1010008C9140008F912000872
:10001000C5140008CD020008911A00080000000075
:1000200000000000000000000000000007150008AC
:10003000D10200080000000005150008091500089D
:10004000DB010008DB010008DB010008DB01000820
:10005000DB010008DB010008E9020008DB01000801
:10006000FF02000809030008DB010008DB010008AB
:10007000DB010008DB010008DB010008DB010008F0
:10008000DB010008DB010008DB010008DB010008E0
:10009000DB010008DB010008DB010008DB010008D0
:1000A000DB010008DB010008DB010008DB010008C0
:1000B000DB010008DB010008DB010008DB010008B0
:1000C000DB010008DB010008DB010008DB010008A0
:1000D000DB010008DB010008DB010008DB01000890
:1000E000F3020008DB010008DB010008DB01000867
:1000F000DB010008DB010008DB010008DB01000870
:10010000DB010008DB010008DB010008DB0100085F
:10011000DB010008DB01000835160008DB010008E0
:10012000DB010008DB010008DB010008DB0100083F
:10013000DB010008DB010008DB010008DB0100082F
:10014000DB010008DB010008DB010008DB0100081F
:10015000DB010008DB010008DB010008DB0100080F
:10016000DB010008DB010008DB010008DB010008FF
:10017000DB010008DB010008DB01000800000000D3
:10018000DB010008DB010008DB010008DB010008DF
:10019000DB010008DB010008DB010008DB010008CF
:1001A000DB010008DB010008DB010008DFF80CD0F0
:1001B00000F07AF800480047011B0008980400206E
:1001C0000648804706480047FEE7FEE7FEE7FEE7F1
:1001D000FEE7FEE7FEE7FEE7FEE7FEE7D1150008D3
:1001E000AD0100082DE9F05F0546002092469B46D0
:1001F00088460646814640241BE02846414647463D
:10020000224600F041F853465A46C01A914110D395
:1002100011461846224600F028F82D1A67EB01080F
:100220004F4622460120002100F01FF817EB00097D
:100230004E41201EA4F10104DFDC484631462A4627
:100240004346BDE8F09FD2B201E000F8012B491E01
:10025000FBD270470022F6E710B513460A46044663
:100260001946FFF7F0FF204610BD202A04DB203A94
:1002700000FA02F1002070479140C2F1200320FAF9
:1002800003F3194390407047202A04DB203A21FAF7
:1002900002F00021704721FA02F3D040C2F120029F
:1002A0009140084319467047064C074D06E0E06848
:1002B00040F0010394E8070098471034AC42F6D3AD
:1002C000FFF778FF441B0008641B000800BFFEE72F
:1002D000704700000349086000BF0249096800290F
:1002E000FBD170470000002010B5012000F060F83D
:1002F00010BD10B54FF4005000F05AF810BD10B505
:10030000042000F055F810BD10B5082000F050F89A
:1003100010BD72B600BFFEE710B50446012C07D031
:10032000042C17D0082C0CD0B4F5005F25D11AE0AE
:100330000121134800F058F910B112A001F0AAFBF6
:100340001BE00821124800F04FF910B911A001F08C
:10035000A1FB12E004210E4800F046F910B90FA0ED
:1003600001F098FB09E04FF400510E4800F03CF911
:1003700010B90DA001F08EFB00BF00BF10BD000042
:1003800000000240574B5F5550210D0A000000004D
:10039000001C02404B455930210D0A004B45593194
:1003A000210D0A00000802404B455932210D0A0078
:1003B00010B5044604480068204020B1024804609B
:1003C0002046FFF7A9FF10BD143C0140F8B50246D6
:1003D0000B460025002400200021E6E0012606FA55
:1003E00001F51E6806EA0504AC4273D15E68022E70
:1003F00002D05E68122E13D1CF0802F1200656F803
:1004000027004E07F70E0F26BE40B0434F07FF0EE2
:100410001E69BE403043CF0802F1200646F827008F
:1004200010684F000326BE40B0431E7906F0030655
:100430004F00BE40304310605E68012E08D05E68F9
:10044000022E05D05E68112E02D05E68122E13D1E6
:1004500090684F000326BE40B0434F00DE68BE40A8
:1004600030439060506801268E40B0431E79C6F339
:1004700000168E4030435060D0684F000326BE40C7
:10048000B0434F009E68BE403043D0605E6806F0C7
:100490008056B6F1805FA8D100BF00260096454E79
:1004A000366846F48046434F3E603E46366806F462
:1004B0008046009600BF00BF3F4E8F0856F82700C9
:1004C0008E07370F0F26BE40B0433C4EB24202D1DA
:1004D00000262EE068E03A4EB24201D1012628E023
:1004E000384EB24201D1022623E0374EB24201D14A
:1004F00003261EE0354EB24201D1042619E0344EE7
:10050000B24201D1052614E0324EB24201D1062694
:100510000FE0314EB24201D107260AE02F4EB2421F
:1005200001D1082605E02E4EB24201D1092600E095
:100530000A268F073F0FBE4030431F4E8F0846F8F4
:100540002700284E3068A0435E6806F48036B6F572
:10055000803F00D12043234E3060361D3068A043D9
:100560005E6806F40036B6F5003F00D120431D4E0C
:10057000361D3060361D3068A0435E6806F4801674
:10058000B6F5801F00D12043164E08363060361D68
:100590003068A0435E6806F40016B6F5001F00D16F
:1005A0002043104E0C363060491C1029FFF416AF62
:1005B000F8BD000044380240083801400000024005
:1005C0000004024000080240000C024000100240FB
:1005D0000014024000180240001C024000200240AB
:1005E00000240240003C0140024613690B400BB15D
:1005F000012000E00020704742694A404261704794
:100600000AB1816101E00B04836170470148006811
:10061000704700000800002003480068034909787B
:1006200008440149086070470800002010000020BD
:1006300010B50D48006840F400700B49086008468A
:10064000006840F4806008600846006840F48070EC
:100650000860032000F0A0F80F2000F007F800F079
:100660002BF8002010BD0000003C024070B504468D
:100670000E4800784FF47A71B1FBF0F00C4909682C
:10068000B1FBF0F5284600F043FC08B1012070BD35
:10069000102C07D200222146501E00F03EF80548DB
:1006A000046001E00120F2E70020F0E710000020E4
:1006B000140000200C00002008B500BF00200090AE
:1006C0000E48006840F480400C4908600846006805
:1006D00000F48040009000BF00BF00BF00200090E9
:1006E000081F006840F08050091F08600846006835
:1006F00000F08050009000BF00BF08BD44380240A9
:1007000000BF00F01F02012191404209920002F156
:10071000E022C2F8001100BF70472DE9F05F80466B
:100720000D461646002700F0D1FE074639462A46F8
:10073000334601F00700C0F1070ABAF1040F02D9ED
:100740004FF0040A01E0C0F1070AD14600F1040AA3
:10075000BAF1070F02D24FF0000A01E0A0F1030A3C
:10076000D4464FF0010A0AFA09FAAAF1010A0AEA84
:10077000020A0AFA0CFA4FF0010B0BFA0CFBABF170
:10078000010B0BEA030B4AEA0B042146404600F03A
:10079000A5FEBDE8F09F000000BF00F00702064B79
:1007A00019684FF6FF031940044B0B4343EA02213B
:1007B000014B196000BF70470CED00E00000FA0526
:1007C00038B5002400BF002000901D48006840F0AC
:1007D00080501B4908600846006800F08050009077
:1007E00000BF00BF012017490864FFF70FFF044650
:1007F00007E0FFF70BFF001BB0F57A7F01D903205C
:1008000038BD1148406800F48030B0F5803FF0D129
:1008100001200C494864FFF7F9FE044607E0FFF7A2
:10082000F5FE001BB0F57A7F01D90320E8E7064802
:10083000406800F40030B0F5003FF0D10020DFE761
:100840004038024000000E420070004070B504467F
:100850000D460CB9012070BD5848006800F00F002B
:10086000A84209D255490D700846006800F00F00F3
:10087000A84201D00120EEE7207800F00200022813
:100880001DD1207800F00400042805D14C480068F0
:1008900040F4E0504A490860207800F00800082839
:1008A00005D14748006840F4604045490860444825
:1008B000006820F0F000A1680843414908602078F2
:1008C00000F00100A8B36068012807D13C4808384F
:1008D0000068C0F34040B8B90120BCE76068022856
:1008E00002D06068032807D1354808380068C0F393
:1008F000406048B90120AEE7314808380068C0F3CD
:10090000400008B90120A6E72D48006820F0030048
:10091000616808432A490860FFF778FE064609E047
:10092000FFF774FE801B41F28831884202D9032010
:1009300091E707E02248006800F00C006168B0EB26
:10094000810FEDD11D48006800F00F00A84209D9C1
:100950001A490D700846006800F00F00A84201D047
:10096000012078E7207800F00400042807D114481B
:10097000006820F4E050E1680843114908602078DD
:1009800000F00800082808D10D48006820F46040F5
:10099000216940EAC1000A49086000F03DF80849B1
:1009A0000968C1F30311074A515CC8400649086051
:1009B0000F20FFF75BFE00204DE70000003C0240E7
:1009C000083802402C1B0008140000200148006871
:1009D000704700001400002000B5FFF7F7FF04493E
:1009E0000968C1F38221034A515CC84000BD000080
:1009F000083802403C1B000800B5FFF7E7FF044938
:100A00000968C1F34231034A515CC84000BD00008F
:100A1000083802403C1B00082DE9F047002400255F
:100A20000026A1462548006800F00C0020B10428EB
:100A300005D008283AD105E0DFF8849039E0DFF8E6
:100A4000849036E01D48001F006800F03F041B48FA
:100A5000001F006800F4800078B11A481749091F88
:100A60000968C1F38811A0FB0170014622460023EA
:100A70003846FFF7B7FB05460EE011480F49091F3E
:100A80000968C1F38811A0FB0170014622460023CA
:100A90003846FFF7A7FB05460848001F0068C0F36B
:100AA0000140401C4600B5FBF6F902E0DFF810906B
:100AB00000BF00BF4846BDE8F0870000083802408C
:100AC0000024F40040787D01F8B504460CB90120FB
:100AD000F8BD207800F00100002874D0F9480068C3
:100AE00000F00C0004280DD0F648006800F00C005F
:100AF000082813D1F348001F006800F48000B0F507
:100B0000800F0BD1EF4808380068C0F34040002840
:100B100059D06068002856D10120D9E700BF60682D
:100B2000B0F5803F08D1E7480838006840F48030CD
:100B3000E449083908601EE06068B0F5A02F0DD1C7
:100B4000E0480838006840F48020DE490839086031
:100B50000846006840F4803008600CE0D948083846
:100B6000006820F48030D7490839086008460068DA
:100B700020F48020086000BF606890B1FFF746FD58
:100B8000054606E0FFF742FD401B642801D903201B
:100B90009EE7CC4808380068C0F340400028F1D0F8
:100BA00011E0FFF733FD054606E0FFF72FFD401B80
:100BB000642801D903208BE7C24808380068C0F3D5
:100BC00040400028F1D1207800F0020002285FD1D7
:100BD000BC48006800F00C0058B1BA48006800F04A
:100BE0000C0008281CD1B748001F006800F48000E2
:100BF000B0B9B44808380068C0F3400020B1E068DC
:100C0000012801D0012063E7AE480838006820F0D1
:100C1000F800216940EAC100AA490839086037E0B4
:100C2000E06800B30120A8490860FFF7EFFC054623
:100C300006E0FFF7EBFC401B022801D9032047E741
:100C4000A04808380068C0F340000028F1D09D4853
:100C50000838006820F0F800216940EAC10099498D
:100C60000839086014E0002097490860FFF7CEFCBF
:100C7000054606E0FFF7CAFC401B022801D9032005
:100C800026E7904808380068C0F340000028F1D1FA
:100C9000207800F0080008282CD16069A8B1012054
:100CA0008A490860FFF7B2FC054606E0FFF7AEFC94
:100CB000401B022801D903200AE782486C300068F3
:100CC000C0F340000028F1D014E000207F49086004
:100CD000FFF79CFC054606E0FFF798FC401B022846
:100CE00001D90320F4E677486C300068C0F3400077
:100CF0000028F1D1207800F00400042870D10026EB
:100D000070483830006800F0805090B900BF002073
:100D100000906C483830006840F0805069493831A4
:100D200008600846006800F08050009000BF00BFD7
:100D300001266748006800F48070B0B96448006814
:100D400040F4807062490860FFF760FC054606E0E9
:100D5000FFF75CFC401B022801D90320B8E65C4881
:100D6000006800F480700028F2D000BFA06801285D
:100D700008D154486830006840F00100514968319A
:100D800008601DE0A06805280DD14E486830006855
:100D900040F004004B49683108600846006840F0A4
:100DA000010008600CE047486830006820F001004E
:100DB0004449683108600846006820F00400086073
:100DC00000BFA068A8B1FFF721FC054609E0FFF7C6
:100DD0001DFC401B41F28831884202D9032077E68E
:100DE00026E0384868300068C0F340000028EED0A4
:100DF00013E0FFF70BFC054608E0FFF707FC401B7C
:100E000041F28831884201D9032061E62D486830DB
:100E10000068C0F340000028EFD1012E07D1294817
:100E20003830006820F0805026493831086000BF13
:100E3000A069B8B32348006800F00C0008285ED011
:100E4000A069022846D100201F490866FFF7DEFB93
:100E5000054606E0FFF7DAFB401B022801D9032014
:100E600036E6184808380068C0F340600028F1D121
:100E7000D4E907010843616A40EA81110122A06AAE
:100E8000C2EB500041EA00412C20005D41EA0060C5
:100E90000C49091F086001200B490866FFF7B6FBE3
:100EA000054607E02DE0FFF7B1FB401B022801D902
:100EB00003200DE6034808380068C0F340600028AE
:100EC000F1D01EE00838024000004742800E474241
:100ED0000070004000200C490866FFF797FB0546AC
:100EE00006E0FFF793FB401B022801D90320EFE542
:100EF00006480068C0F340600028F2D101E00120FC
:100F0000E6E50020E4E5000000004742003802402A
:100F100070B504462546681EB0F1807F01D30120DC
:100F20000FE0681E4FF0E02148610F214FF0FF30C5
:100F300000F0D4FA00204FF0E0218861072008611A
:100F4000002070BD70477047024600BF92F838001D
:100F5000012801D102207047012082F8380000BF2B
:100F6000022082F839001068406820F07000136891
:100F70005860106840680B68184313685860106820
:100F8000806820F0800013689860106880684B6863
:100F9000184313689860012082F8390000BF0020D0
:100FA00082F8380000BF00BFD5E710B504460CB981
:100FB000012010BD94F8390028B9002084F83800C9
:100FC000204600F00DF8022084F83900211D206829
:100FD00000F038FB012084F839000020E9E7000028
:100FE00038B504460E492068884217D100BF00205A
:100FF00000900C48006840F010000A49086008465C
:10100000006800F01000009000BF00BF00221146F1
:101010003620FFF782FB3620FFF772FB38BD000059
:10102000001000404038024001460868C06840F0A7
:1010300001000A68D0600868006840F001000A6892
:10104000106000207047704710B5044620680069A2
:10105000C0F34000D8B12068C068C0F34000B0B110
:101060006FF0020021680861012020762068806905
:1010700000F0030018B12046FFF7E5FF05E0204629
:1010800000F0ADF8204600F0ABF800202076206894
:101090000069C0F38000D8B12068C068C0F3800048
:1010A000B0B16FF00400216808610220207620684A
:1010B000806900F4407018B12046FFF7C4FF05E0D6
:1010C000204600F08CF8204600F08AF800202076B8
:1010D00020680069C0F3C000D8B12068C068C0F3C0
:1010E000C000B0B16FF008002168086104202076CC
:1010F0002068C06900F0030018B12046FFF7A3FF85
:1011000005E0204600F06BF8204600F069F800206A
:10111000207620680069C0F30010D8B12068C0684C
:10112000C0F30010B0B16FF0100021680861082012
:1011300020762068C06900F4407018B12046FFF79F
:1011400082FF05E0204600F04AF8204600F048F80B
:10115000002020762068006900F0010058B1206866
:10116000C06800F0010030B16FF001002168086133
:10117000204600F037F820680069C0F3C01058B16D
:101180002068C068C0F3C01030B16FF080002168E3
:1011900008612046FFF7D6FE20680069C0F3801082
:1011A00058B12068C068C0F3801030B16FF04000C3
:1011B00021680861204600F021F820680069C0F32A
:1011C000401058B12068C068C0F3401030B16FF0D3
:1011D0002000216808612046FFF7B5FE10BD70476A
:1011E000704700000449096821B103490968491E94
:1011F000014A11607047000000000020704710B5E0
:1012000004460CB9012010BDA06900B100E000BF88
:1012100094F8390028B9002084F83800204600F0FE
:1012200027F8242084F839002068C06820F4005092
:101230002168C860204600F077FA2068006920F431
:101240009040216808612068406920F02A002168E8
:1012500048612068C06840F400502168C8600020E0
:10126000E063202084F8390084F83A000020CAE7BF
:1012700010B586B00446142101A8FEF7EBFF1B4908
:101280002068884230D100BF0020009018480068D4
:1012900040F01000164908600846006800F0100091
:1012A000009000BF00BF00BF00200090104814381D
:1012B000006840F001000E491439086008460068D3
:1012C00000F00100009000BF00BF4FF4C06001902B
:1012D0000220029000200390032004900720059034
:1012E00001A90448FFF772F806B010BD00100140D4
:1012F000443802400000024000BFFEE700B587B05E
:10130000142102A8FEF7A6FF00BF00200190454867
:10131000006840F00400434908600846006800F097
:101320000400019000BF00BF00BF002001900846EC
:10133000006840F0800008600846006800F0800007
:10134000019000BF00BF00BF002001900846006868
:1013500040F0010008600846006800F001000190BC
:1013600000BF00BF00BF002001900846006840F0A9
:10137000020008600846006800F00200019000BF0B
:1013800000BF002201212848FFF73AF94FF400502E
:101390000290264803900120049002A92448FFF7F8
:1013A00015F801200290234803900220049002A91E
:1013B0002148FFF70BF80C2002901C4803900120F5
:1013C000049002A91D48FFF701F801200290039044
:1013D00000200490059002A91348FEF7F7FF0022B1
:1013E00011460620FFF799F90620FFF789F9002238
:1013F00011460820FFF791F90820FFF781F9002234
:1014000011460920FFF789F90920FFF779F9002231
:1014100011462820FFF781F92820FFF771F907B05E
:1014200000BD0000303802400004024000002110DE
:10143000000802400000111000000240001C0240A1
:101440001CB50020009001900E480F4908605920FB
:10145000486000210C48816040F2E731C160FFF72D
:10146000A4FD08B1FEF755FF0020009001906946E9
:101470000548FFF769FD08B1FEF74BFF0248FFF78B
:10148000D3FD1CBD001000401C00002010B50B480F
:101490000B4908604FF4E130486000210848816042
:1014A000C16001610C21416100218161C161FFF7CF
:1014B000A6FE08B1FEF72DFF10BD00000010014090
:1014C0005800002000BFFEE700BFFEE702480068AA
:1014D000C0F30220704700000CED00E010B50028BA
:1014E00007DA0A07140E054A00F00F031B1FD45435
:1014F00003E00A07130E024A135410BD18ED00E072
:1015000000E400E07047704710B5FFF785F810BDA4
:1015100000B593B0302107A8FEF79CFE142102A865
:10152000FEF798FE00BF002001902748006840F0B9
:101530008050254908600846006800F080500190FE
:1015400000BF00BF00BF002001902048006840F4A9
:1015500040401E4908600846006800F44040019081
:1015600000BF00BF012007900004089002200D90EA
:1015700041050E9119210F914FF4B4711091022180
:1015800011910421129107A8FFF79EFA08B1FEF706
:10159000C0FEFFF715F908B1FEF7BBFE0F20029061
:1015A00002200390002004904FF4A05005904FF4C7
:1015B00080500690052102A8FFF748F908B1FEF710
:1015C000A8FE13B000BD000040380240007000408B
:1015D0001448006840F4700012490860124800681E
:1015E00040F001001049086000200F4908310860F0
:1015F0000D4800680D4908400B4908600C48091D5A
:101600000860081F006820F48020091F086000207F
:1016100005490C3108604FF00060024980390860CC
:101620007047000088ED00E000380240FFFFF6FE42
:101630001030002410B50248FFF706FD10BD000071
:101640001C000020002202682C4B98420ED0B0F102
:10165000804F0BD02A4B984208D02A4B984205D095
:10166000294B984202D0294B984201D1012300E036
:1016700000231BB122F070024B681A431F4B9842A3
:1016800020D0B0F1804F1DD01D4B98421AD01D4B79
:10169000984217D01C4B984214D01C4B984211D042
:1016A0001B4B98420ED01B4B98420BD01A4B9842C2
:1016B00008D01A4B984205D0194B984202D0194BCA
:1016C000984201D1012300E000231BB122F44072B3
:1016D000CB681A4302608B68C3620B688362074B56
:1016E000984202D0094B984201D1012300E0002327
:1016F0000BB10B6903630123436170470000014094
:101700000004004000080040000C004000040140BC
:1017100000400140004401400048014000180040E2
:10172000001C0040002000402DE9F0410446002547
:101730002068056925F44055E06805432068056187
:101740002068C56849F20C6085432169A068084398
:1017500061690843E169084305432068C560206862
:10176000456925F44075A069054320684561E06935
:10177000B0F5004F7ED1C4492068884203D0C349E8
:10178000206888425DD1FFF737F900EBC00101EB1B
:10179000001061684900B0FBF1F06421B0FBF1F08A
:1017A0000601FFF729F900EBC00101EB00106168A9
:1017B0004900B0FBF1F7FFF71FF900EBC00101EBA7
:1017C000001061684900B0FBF1F06421B0FBF1F05A
:1017D00000EBC00101EB0010A7EB8000322101EB10
:1017E000C0006421B0FBF1F000F0F80006EB400609
:1017F000FFF702F900EBC00101EB0010616849003E
:10180000B0FBF1F7FFF7F8F800EBC00101EB0010B7
:1018100061684900B0FBF1F06421B0FBF1F000EB2E
:10182000C00101EB0010A7EB8000322101EBC000EA
:101830006421B0FBF1F000F00700304421688860BB
:1018400020E1FFF7C9F800EBC00101EB001061686F
:101850004900B0FBF1F06421B0FBF1F00601FFF7A5
:10186000BBF800EBC00101EB001061684900B0FB60
:10187000F1F700E045E0FFF7AFF800EBC00101EB46
:10188000001061684900B0FBF1F06421B0FBF1F099
:1018900000EBC00101EB0010A7EB8000322101EB4F
:1018A000C0006421B0FBF1F000F0F80006EB400648
:1018B000FFF792F800EBC00101EB001061684900EE
:1018C000B0FBF1F7FFF788F800EBC00101EB001067
:1018D00061684900B0FBF1F06421B0FBF1F000EB6E
:1018E000C00101EB0010A7EB8000322101EBC0002A
:1018F0006421B0FBF1F000F00700304421688860FB
:10190000C0E061492068884203D06049206888426D
:101910005CD1FFF771F800EBC00101EB00106168CA
:101920008900B0FBF1F6FFF767F800EBC00101EBAF
:10193000001061688900B0FBF1F06421B0FBF1F0A8
:1019400000EBC00101EB0010A6EB8000322101EB9F
:1019500000106421B0FBF1F000F0F006FFF74CF846
:1019600000EBC00101EB001061688900B0FBF1F0F1
:101970006421B0FBF1F006EB0016FFF73DF800EB39
:10198000C00101EB001061688900B0FBF1F7FFF7BF
:1019900033F800EBC00101EB001061688900B0FB77
:1019A000F1F06421B0FBF1F000EBC00101EB00109D
:1019B000A7EB8000322101EB00106421B0FBF1F0B5
:1019C00000F00F003044216888605BE0FFF704F806
:1019D00000EBC00101EB001061688900B0FBF1F67B
:1019E000FEF7FAFF00EBC00101EB0010616889000F
:1019F000B0FBF1F06421B0FBF1F000EBC00101EBB2
:101A00000010A6EB8000322101EB00106421B0FB36
:101A1000F1F000F0F006FEF7DFFF00EBC00101EB94
:101A2000001061688900B0FBF1F06421B0FBF1F0B7
:101A300006EB0016FEF7D0FF00EBC00101EB001033
:101A400061688900B0FBF1F7FEF7C6FF00EBC0014B
:101A500001EB001061688900B0FBF1F06421B0FB7C
:101A6000F1F000EBC00101EB0010A7EB8000322188
:101A700001EB00106421B0FBF1F000F00F003044E6
:101A800021688860BDE8F081001001400014014029
:101A900000BFFEE7014A024900F013B8E51A00084A
:101AA0001800002002E008C8121F08C1002AFAD15D
:101AB00070477047002001E001C1121F002AFBD1CE
:101AC00070472DE9F04116460F460446002503E015
:101AD0003946B047641C6D1C20780028F8D1284690
:101AE000BDE8F08100BF054A126802F04002002AFA
:101AF000F9D0C2B2014B5A6070470000001001409B
:101B0000FEF796FDFFF704FDFFF7F8FBFFF7BEFCBD
:101B1000FFF796FC07E001210348FEF76DFD4FF447
:101B20007A70FEF7D7FBF6E70004024000000000E1
:101B3000000000000102030406070809000000007D
:101B400001020304641B0008000000201C000000C8
:101B5000A41A0008801B00081C0000207C04000060
:101B6000B41A00080000000000000000000000009F
:101B700010000000010000000024F400000000003C
:04000005080001AD41
:00000001FF
