:020000040800F2
:10000000D8040020C101000847150008711300083A
:1000100045150008F9020008891C000800000000CE
:100020000000000000000000000000006B15000848
:10003000FB02000800000000691500086D150008AB
:10004000DB010008DB010008DB010008DB01000820
:10005000DB010008DB010008DB010008DB01000810
:10006000DB010008DB010008DB010008DB01000800
:10007000DB010008DB010008DB010008DB010008F0
:10008000DB010008DB010008DB010008DB010008E0
:10009000DB010008DB010008DB010008DB010008D0
:1000A000DB010008DB010008DB010008DB010008C0
:1000B000DB010008DB010008DB010008DB010008B0
:1000C000DB010008DB010008DB010008DB010008A0
:1000D000DB010008DB010008DB010008DB01000890
:1000E000DB010008DB010008DB010008DB01000880
:1000F000DB010008DB010008DB010008DB01000870
:10010000DB010008DB01000865160008DB010008C0
:10011000DB010008DB010008DB010008DB0100084F
:10012000DB010008DB010008DB010008DB0100083F
:10013000DB010008DB010008DB010008DB0100082F
:10014000DB010008DB010008DB010008DB0100081F
:10015000DB010008DB010008DB010008DB0100080F
:10016000DB010008DB010008DB010008DB010008FF
:10017000DB010008DB010008DB01000800000000D3
:10018000DB010008DB010008DB010008DB010008DF
:10019000DB010008DB010008DB010008DB010008CF
:1001A000DB010008DB010008DB010008DFF80CD0F0
:1001B00000F090F800480047351E0008D8040020E1
:1001C0000648804706480047FEE7FEE7FEE7FEE7F1
:1001D000FEE7FEE7FEE7FEE7FEE7FEE71116000892
:1001E000AD0100082DE9F05F0546002092469B46D0
:1001F00088460646814640241BE02846414647463D
:10020000224600F057F853465A46C01A914110D37F
:1002100011461846224600F03EF82D1A67EB0108F9
:100220004F4622460120002100F035F817EB000967
:100230004E41201EA4F10104DFDC484631462A4627
:100240004346BDE8F09FD2B201E000F8012B491E01
:10025000FBD270470022F6E710B513460A46044663
:100260001946FFF7F0FF204610BD30B50B4601469A
:1002700000202022012409E021FA02F59D4205D345
:1002800003FA02F5491B04FA02F52844151EA2F1EF
:100290000102F1DC30BD202A04DB203A00FA02F131
:1002A000002070479140C2F1200320FA03F3194364
:1002B00090407047202A04DB203A21FA02F0002106
:1002C000704721FA02F3D040C2F120029140084366
:1002D00019467047064C074D06E0E06840F0010300
:1002E00094E8070098471034AC42F6D3FFF762FF5A
:1002F000701E0008901E0008FEE7704772B6FEE709
:1003000070B5044600F0F4F80546601C02D00448BD
:100310000078044400F0ECF8401BA042FAD370BD12
:10032000080000202DE9F84FDFF890B100224FF0CF
:1003300001084FF0030A4FF00F090BF1040E00BF44
:100340000B6808FA02F42340A3426ED14D68022DD7
:1003500001D0122D0ED1D50800EB850CDCF8205011
:100360005607F70E09FA07F6B5430E69BE402E434D
:10037000CCF82060066855000F790AFA05FC07F0F2
:10038000030726EA0C06AF40374307604E68012E8C
:1003900005D0022E03D0112E01D0122E0ED1876867
:1003A000CE6827EA0C07AE403E4386604668A64307
:1003B0000C79C4F30014944034434460C4688E68DC
:1003C00024EA0C04AE402643C6604C68E4006FD5B6
:1003D0003B4C256845F480452560246822F00305E0
:1003E00004F480440094374C2E19D6F80848950739
:1003F0002F0F09FA07F5AC43334DA84201D1002570
:100400002EE0324DA84201D1012529E0304DA8420D
:1004100001D1022524E02F4DA84201D103251FE080
:100420002D4DA84202D104251AE041E02B4DA842EF
:1004300001D1052514E02A4DA84201D106250FE07F
:10044000284DA84201D107250AE0274DA84201D135
:10045000082505E0254DA84201D1092500E00A251F
:10046000BD402543C6F80858DBF800405D464E689D
:100470009C43F60300D51C432C60DEF80040754613
:100480004E689C43B60300D51C432C600B4D0835C9
:100490002C684E689C43F60200D51C432C60074D27
:1004A0000C352C684E689C43B60200D51C432C606A
:1004B000521C102AFFF444AFBDE8F88F003C014005
:1004C0004438024000300140000002400004024075
:1004D00000080240000C02400010024000140240DC
:1004E00000180240001C024000200240002402408C
:1004F00001488068704700000800002002488168B9
:100500000278114481607047080000200B4810B544
:10051000016841F400710160016841F4806101608B
:10052000016841F480710160032000F06DF80F2034
:1005300000F006F800F024F8002010BD003C024056
:1005400070B50D4D04464FF47A712878B1FBF0F088
:100550000A490968B1FBF0F000F018FB48B9102C0B
:1005600007D200222146501E00F02EF800206C60B9
:1005700070BD012070BD00000800002014000020A4
:100580000A4808B5016841F480410160006800F440
:10059000804000900548001F016841F080510160D3
:1005A000006800F08050009008BD00004438024010
:1005B00000F01F02012191404009800000F1E0207D
:1005C000C0F8001170470000F0B40E4B1B680C46D9
:1005D000C3F30223C3F10705042D00D90425191D17
:1005E000072901D2002300E0DB1E012606FA05F1EF
:1005F000491E214099409E40761E16403143F0BC72
:1006000000F0A2BF0CED00E0064900F00702086808
:100610004FF6FF03184040EA0220034A10430860E7
:10062000704700000CED00E00000FA052DE9F843EA
:100630001748016841F0805101600068154F00F0D3
:100640008050012600903E64FFF752FF05464FF4AC
:100650007A78114C05E000BFFFF74AFF401B404588
:100660000DD86068C003F7D57E64FFF741FF0546EB
:10067000464607E0FFF73CFF401BB04202D903208B
:10068000BDE8F88360688003F4D50020F8E7000037
:100690004038024000000E42007000402DE9F04753
:1006A0000E46050065D0DFF81481D8F80000F7B2D7
:1006B00000F00F00B04207D288F80070D8F80000B0
:1006C00000F00F00B04254D128683D4C810712D58C
:1006D000400703D5206840F4E050206028780007E8
:1006E00003D5206840F4604020602068A96820F0AD
:1006F000F000084320602878C0072DD03049686892
:100700000839012812D0022813D0032811D0096813
:10071000890700292DDA216821F0030101432160B6
:10072000FFF7E6FE814641F2883A0EE00968890348
:10073000EFE709688901ECE7FFF7DAFEA0EB0901B2
:10074000514502D90320BDE8F0872068696800F0B0
:100750000C00B0EB810FEFD1D8F80010404601F04B
:100760000F01B14207D90770006800F00F00B042D6
:1007700001D00120E7E72878400705D52068E9681F
:1007800020F4E050084320602878000706D5206850
:10079000296920F4604040EAC100206000F036F88A
:1007A0002168084AC1F30311515CC840064908603A
:1007B0000F20FFF7C5FE0020C5E70000003C024007
:1007C00008380240581E000814000020044805495B
:1007D00000680968044AC1F38221515CC84070472F
:1007E0001400002008380240681E0008044805492B
:1007F00000680968044AC1F34231515CC84070473F
:100800001400002008380240681E0008154810B582
:10081000006810F00C02144813D01449042A0FD0B9
:10082000082A0ED10F4C241F2268236802F03F02D1
:100830005B0207D52068C0F38810A0FB010106E029
:10084000084610BD2168C1F38811A1FB00010023F7
:10085000FFF7C8FC2168C1F30141491C4900B0FB06
:10086000F1F010BD083802400024F40040787D010A
:100870002DE9F84F050076D02878DFF8F8B2BE4CA5
:10088000C00749D0DBF800105846C1F381010129A7
:1008900008D00068C0F3810002280AD1201D00683A
:1008A000400206D52068800336D568680028E2D06B
:1008B00032E06868B0F5803F10D0B0F5A02F206816
:1008C00010D020F480302060206820F48020206048
:1008D0006868A0B1FFF70CFE06460CE0206840F403
:1008E0008030F4E740F480202060F7E7FFF700FE57
:1008F000801B642873D820688003F7D50CE0FFF7CD
:10090000F7FD064605E000BFFFF7F2FD801B6428F7
:10091000F0D820688003F7D42878DFF86082800759
:100920004FF000093ED5DBF80010584611F00C0FCF
:1009300009D00068C0F3810002280BD18D48001F48
:100940000068400206D42068800715D5E8680128B1
:1009500009D111E0E868B8B10120C8F80000FFF73C
:10096000C7FD064605E002E1FFF7C2FD801B022835
:10097000C0D820688007F7D52068296920F0F800E2
:1009800040EAC10020600DE0C8F80090FFF7B0FD1C
:10099000064604E0FFF7ACFD801B02281FD8206844
:1009A0008007F7D42878000722D5724E7448696909
:1009B0006C3671B101210160FFF79AFD074604E032
:1009C000FFF796FDC01B022809D830688007F7D5CD
:1009D0000EE0C0F80090FFF78BFD074605E083E0CE
:1009E000FFF786FDC01B02287ED830688007F7D449
:1009F0002878400768D5DFF87CA100270AF1380A7B
:100A0000DAF80000C0000BD4DAF8001041F0805191
:100A1000CAF80010DAF80000012700F080500090BA
:100A2000584E3068C00510D4306840F48070306093
:100A3000FFF75EFD009005E0FFF75AFD0099401AB0
:100A4000022851D83068C005F6D54A4EA8686836E5
:100A500001280FD00528306810D020F00100306048
:100A6000306820F004003060A868B8B1FFF740FD9E
:100A700000900FE0306840F00100F4E740F004001F
:100A80003060F7E7FFF734FD0099411A41F28830F2
:100A9000814264D830688007F4D50EE0FFF728FD66
:100AA000009007E0FFF724FD0099411A41F28830D9
:100AB000814254D830688007F4D42FB1DAF800109E
:100AC00021F08051CAF80010A869C0B3DBF800100B
:100AD000C1F3810102294AD00228484607D0C8F84C
:100AE0006000FFF705FD00E039E005463AE04746C3
:100AF000C8F86000FFF7FCFC064604E0FFF7F8FCCE
:100B0000801B02282BD820688001F7D4D5E9070183
:100B10000843A96A1C4A490802EB01416A6A41EA92
:100B20008211084395F82C1040EA01611148001F1A
:100B3000016001203866FFF7DBFC054605E014E0A4
:100B4000FFF7D6FC401B022809D820688001F7D5A2
:100B50000BE000BFFFF7CCFC401B022802D90320AA
:100B6000BDE8F88F20688001F4D40020F8E7012068
:100B7000F6E7000008380240003802400000474213
:100B8000800E4742007000400000FFFF10B5401E7D
:100B9000B0F1807F01D3012010BD4FF0E0246061EF
:100BA0000F21601700F0D0FC0020A0610720206119
:100BB000002010BD7047704730B590F83820012AEA
:100BC00020D0012280F83820022380F839300368D1
:100BD0005C6824F070045C6003685C680D682C43FA
:100BE0005C6003689C6824F080049C6003689C68D7
:100BF00049680C439C6080F83920002180F8381047
:100C0000084630BD022030BD10B5040003D094F872
:100C1000390010B107E0012010BD002084F8380031
:100C2000204600F00DF8022084F83900211D2068CC
:100C300000F01EFD012084F83900002010BD0000E6
:100C400010B586B0044614216846FFF703FB1C4B21
:100C5000226800211B489A4209D1016841F0020133
:100C60000160006800F00200059006B010BD164B50
:100C70009A42FAD1026842F008020260006800F06D
:100C8000080005900F481038026842F00102026027
:100C9000006800F001000590012000900220CDE9DD
:100CA00002010190049069460848FFF73BFB0022CF
:100CB00002213220FFF788FC3220FFF779FCD4E7CD
:100CC0000004004040380240000C00400000024098
:100CD00070B5044690F83800012817D0012584F833
:100CE0003850022084F839002068826822F07702A8
:100CF00022F47F4282600868502837D00DDC20281B
:100D000059D005DC88B3102841D151E0022070BDD4
:100D1000302853D040283AD13FE060282ED07028A8
:100D20000BD0B0F5805F03D0B0F5005F2FD110E09D
:100D30002068816821F0070115E0CB68D1E9012125
:100D4000206800F000FD2168886840F07700886026
:100D50001DE0CB68D1E90121206800F0F4FC206897
:100D6000816841F48041816011E01EE0CA684968F1
:100D7000206800F0B1FD5021206806E0CA6849688B
:100D8000206800F0FDFD6021206800F0E6FC84F89A
:100D90003950002084F8380070BDCA68496820685E
:100DA00000F09AFD40212068EFE700212068ECE781
:100DB00010212068E9E720212068E6E7302120683B
:100DC000E3E70000094988420FD1007E01280CD1D9
:100DD0000748026842600968496B0160881A054942
:100DE000B1FBF0F104A000F051BF704758000020A3
:100DF0000000002040420F002564487A0D0A0000E0
:100E00002DE9F041044690F838000D4601283DD008
:100E1000012684F83860022084F83900AAB3042A35
:100E200046D02068082A55D0D5E90027E968036A2A
:100E300023F480530362D0F81CC0036A2CF4407C76
:100E40004CEA07274FF6FF7C27F470470CEA013184
:100E500039434FF4204723F4204307EA02321A4370
:100E6000C16102622068C16921F44061C1612068EA
:100E7000C169AA6841EA0221C0F81C1084F83960EF
:100E8000002084F83800BDE8F08101E00220FAE794
:100E9000D5E90012EB68206800F030FD2068816918
:100EA00021F00C01816120688169AA6811430FE07B
:100EB000D5E90012EB68206800F074FD20688169B4
:100EC00021F44061816120688169AA6841EA0221B8
:100ED0008161D3E7D5E9002C2F7B016A21F4807171
:100EE0000162C169036A21F0030141EA0C0121F0AA
:100EF000F00C39074FF420674CEA116123F42063AA
:100F000007EA02221A43C16102622068C16921F026
:100F10000C01C1612068C169AA681143ACE710B532
:100F2000040003D094F8390010B107E0012010BD8F
:100F3000002084F83800204600F00CF8022084F8E5
:100F40003900211D206800F093FB012084F839004E
:100F5000002010BD704710B50268044631B1042965
:100F600008D0082915D00C2908D116E0D06840F027
:100F7000020002E0D06840F00400D0600122206846
:100F800000F0D6FB2068016841F0010101600020FB
:100F900010BDD06840F00800EFE7D06840F01000C6
:100FA000EBE770B50446006801694FF00005C943DE
:100FB000890715D4C168C943890711D4E91E0161A5
:100FC00001202076206880698007204602D0FFF744
:100FD000F9FE04E000F0C0F8204600F042F9257662
:100FE00020680169C943490717D4C168C943490743
:100FF00013D46FF00401016102202076206880691B
:1010000010F4407F204602D0FFF7DCFE04E000F041
:10101000A3F8204600F025F9257620680169C94328
:10102000090716D4C168C943090712D46FF0080133
:101030000161042020762068C0698007204602D024
:10104000FFF7C0FE04E000F087F8204600F009F941
:10105000257620680169C943C90617D4C168C94308
:10106000C90613D46FF010010161082020762068B2
:10107000C06910F4407F204602D0FFF7A3FE04E0D1
:1010800000F06AF8204600F0ECF825762068016947
:10109000C943C90708D1C168C943C90704D1891E1A
:1010A0000161204600F0FAF820680169C943090689
:1010B00009D4C168C943090605D46FF080010161F4
:1010C0002046FFF777FD20680169C943490609D426
:1010D000C168C943490605D46FF04001016120464B
:1010E00000F0DDF820680169C94389060BD4C168A6
:1010F000C943890607D46FF0200101612046BDE88D
:101100007040FFF758BD70BD10B586B0044614217D
:101110006846FFF79FF80D492068884214D10C48B3
:101120000021026842F002020260006800F0020042
:101130000590012000900220CDE90101CDE90310C6
:1011400069460448FFF7EEF806B010BD0004004001
:101150003038024000040240704770B5044690F8F1
:1011600038000D4601280DD0012684F83860022091
:1011700084F8390042B1042A18D0082A2AD00C2A4F
:101180004DD139E0022070BD206800F0EFFA2068F0
:10119000816941F0080181612068816921F00401C1
:1011A0008161206881692A69114311E0206800F09B
:1011B00009FB2068816941F40061816120688169CF
:1011C00021F480618161206881692A6941EA0221F4
:1011D000816124E0206800F027FB2068C16941F0AC
:1011E0000801C1612068C16921F00401C161206862
:1011F000C1692A69114311E0206800F045FB2068AD
:10120000C16941F40061C1612068C16921F4806154
:10121000C1612068C1692A6941EA0221C16184F87B
:101220003960002084F8380070BD10B5040003D088
:1012300094F8390010B107E0012010BD002084F8B7
:101240003800204600F00CF8022084F83900211DF7
:10125000206800F00DFA012084F83900002010BD4C
:101260007047704710B504460068012200F060FA2C
:1012700008492068884202D00749884203D1416C5E
:1012800041F4004141642068016841F001010160BE
:10129000002010BD0000014000040140704770476D
:1012A00070B5040004D094F83900002510B106E0B0
:1012B000012070BD84F83850204600F023F8242027
:1012C00084F839002068C16821F40051C1602046CB
:1012D00000F084FB2068016921F4904101612068DD
:1012E000416921F02A0141612068C16841F400513F
:1012F000C160E563202084F8390084F83A000020BA
:1013000070BD000010B586B0044614216846FEF793
:10131000A1FF14492068884221D1134800210268A6
:1013200042F010020260006800F0100005900E48C4
:101330001438026842F001020260006800F0010007
:1013400005904FF4C06000900220CDE90101032018
:1013500003900720049069460448FEF7E3FF06B0B7
:1013600010BD00000010014044380240000002405F
:10137000FEE70000114808B5016841F00401016072
:10138000016801F004010091016841F080010160F1
:10139000016801F080010091016841F001010160E4
:1013A000016801F001010091016841F00201016052
:1013B000006800F00200009008BD000030380240D4
:1013C00010B58EB000240794089409940A940B94E5
:1013D0001C2168460C94FEF73DFF21481F4901601F
:1013E0005921C0E9011440F2E731C0E90314FFF7C5
:1013F0000BFC08B1FEF782FF4FF48050079007A95D
:101400001748FFF765FC08B1FEF778FF1448FFF7AF
:101410000CFF08B1FEF772FF0B940BA910480C9457
:10142000FFF7CAFB08B1FEF769FF602000904FF498
:10143000FA70CDE901040822694609480494FFF7CF
:101440008CFE08B1FEF75AFF08210548FFF70AFF96
:101450000348FFF759FE0EB010BD00000004004025
:101460001C00002010B58AB000242748049405947D
:1014700006940794089409940094019402942149D5
:10148000039401605921C0E901146FF07F41C0E964
:101490000314FFF7B9FB08B1FEF730FF4FF480509B
:1014A000049004A91848FFF713FC08B1FEF726FFC3
:1014B0001548FFF734FD08B1FEF720FF089408A98E
:1014C00011480994FFF778FB08B1FEF717FF0120D8
:1014D000CDE900400294002269460B480394FFF7CF
:1014E0008FFC08B1FEF70AFF042269460648FFF7A1
:1014F00087FC08B1FEF702FF00210348FFF72BFD30
:101500000AB010BD000C0040580000200C4810B577
:101510000A4901604FF4E1314160002181600C22F1
:10152000C160C0E904128161C161FFF7B9FE002802
:1015300003D0BDE81040FEF7E1BE10BD0010014031
:1015400094000020FEE7FEE70907090E002806DAEE
:1015500000F00F0000F1E02080F8141D704700F14A
:10156000E02080F80014704770477047FEF7C6BF50
:1015700030B593B030216846FEF76CFE14210CA8FC
:10158000FEF768FE20480025016841F080510160A7
:10159000006800F0805011901C48016841F44041FF
:1015A00001600068022400F4404011900120009086
:1015B000000401908001CDE90640192008904FF405
:1015C000B470CDE9090404200B906846FFF750F988
:1015D00008B172B6FEE7FFF729F808B172B6FEE768
:1015E0000CA90F2081E831004FF4A0500F904FF468
:1015F0008050109005210CA8FFF750F8002801D06A
:1016000072B6FEE713B030BD4038024000700040B3
:101610001048016841F4700101600F48016841F011
:10162000010101600C4A00210832116002680B4B75
:101630001A400260031D0A4A1A60026822F48022DE
:10164000026005480C300160024958068039086084
:101650007047000088ED00E000380240FFFFF6FE12
:10166000103000240148FFF79CBC00005800002007
:10167000F0B50268234B244D244E254F254C4FF0E6
:10168000804C984209D0604507D0A84205D0B042AE
:1016900003D0B84201D0A04204D122F0700E4A68B3
:1016A00042EA0E0298421BD0604519D0A84217D0DA
:1016B000B04215D0B84213D0A04211D0164DA84266
:1016C0000ED0164DA8420BD0154DA84208D0154D8E
:1016D000A84205D0144DA84202D0144DA84203D10F
:1016E00022F44075CA682A4302608A68C2620A68A6
:1016F0008262984201D0A04201D1096901630121AF
:101700004161F0BD000001400004004000080040BD
:10171000000C004000040140004001400044014032
:101720000048014000180040001C0040002000401C
:1017300010B50123046A8B409C430462036A8A400B
:101740001343036210BD10B5846842EA032224F4F7
:101750007F440A432243826010BD826822F07002F7
:101760000A4342F0070181607047000030B5026A09
:1017700022F001020262026A436884690D6824F063
:101780007304254322F002048A6822430B4CA042D2
:1017900002D00B4CA0420BD122F00804CA6823F4FB
:1017A000407322434C6922F004021C438B6923439B
:1017B0004360856149684163026230BD00000140B9
:1017C0000004014030B5026A22F010020262026A8F
:1017D000436884690D6824F4E64444EA05248D686E
:1017E00022F0200242EA05120D4DA84202D00D4D12
:1017F000A8420ED1CD6822F0800242EA05124D695E
:1018000023F4406343EA85038D6922F0400243EAF2
:1018100085034360846149688163026230BD0000D2
:10182000000001400004014030B5026A22F48072D9
:101830000262036A4268C46923F4007324F07305EA
:101840000C682C438D6843EA05230D4DA84202D055
:101850000C4DA8420ED1CD6823F4006343EA052362
:101860004D6922F4405242EA05128D6923F48063E7
:1018700042EA05124260C4614968C163036230BD37
:10188000000001400004014030B5026A22F4805299
:101890000262046A4268C3690D6823F4E64343EABE
:1018A00005238D6824F4005444EA0534084DA84209
:1018B00002D0084DA84204D14D6922F4804242EA88
:1018C00085124260C36149680164046230BD000052
:1018D000000001400004014010B5036A046A24F0CE
:1018E00001040462846924F0F00444EA021423F041
:1018F0000A020A438461026210BD000070B5046AE6
:1019000024F0010404628469056A164EB04214D0C2
:10191000B0F1804F11D0144EB0420ED0134EB042F1
:101920000BD0134EB04208D0124EB04205D0124E2A
:10193000B04202D0114EB04203D124F0030414434C
:1019400003E024F0030242F001041A0724F0F0043B
:1019500044EA126225F00A0301F00A011943826188
:10196000016270BD0000014000040040000800401A
:10197000000C0040000401400040014000180040FD
:1019800010B5036A23F0100303628369046A23F429
:10199000704343EA023224F0A00343EA011182615A
:1019A000016210BD30B5046A24F010040462846939
:1019B000056A24F4407444EA022222F470444FF68B
:1019C000FF7202EA03322243A02425F0A00304EAB6
:1019D000011119438261016230BD00002DE9F0411F
:1019E00004460068016921F44052E1681143016135
:1019F0002168C86849F20C6290432369A268E569CE
:101A00001A4363692B431A430243CA602168486939
:101A100020F44072A06910434861E1696425B1F582
:101A2000004F9748974A21684FF032083FD09142C3
:101A300001D081427CD1FEF7D9FE00EBC00101EB61
:101A4000001061688900B0FBF1F6FEF7CFFE00EBF5
:101A5000C00101EB001061688900B0FBF1F0B0FB40
:101A6000F5F06FF01801484306EB800108EB011018
:101A7000B0FBF5F000F0F006FEF7B8FE00EBC00199
:101A800001EB001061688900B0FBF1F0B0FBF5F0EC
:101A900006EB0016FEF7AAFE00EBC00101EB0010FA
:101AA00061688900B0FBF1F7FEF7A0FED2E0914239
:101AB00001D081423DD1FEF799FE00EBC00101EB60
:101AC000001061684900B0FBF1F0B0FBF5F00601D1
:101AD000FEF78CFE00EBC00101EB001061684900CD
:101AE000B0FBF1F7FEF782FE00EBC00101EB001046
:101AF00061684900B0FBF1F0B0FBF5F06FF0180140
:101B0000484307EB800108EBC100B0FBF5F000F0A3
:101B1000F80006EB4006FEF769FE00EBC00101EBA2
:101B2000001061684900B0FBF1F7FEF75FFE3CE092
:101B300055E0FEF74BFE00EBC00101EB00106168C1
:101B40004900B0FBF1F0B0FBF5F00601FEF73EFEF8
:101B500000EBC00101EB001061684900B0FBF1F738
:101B6000FEF734FE00EBC00101EB00106168490094
:101B7000B0FBF1F0B0FBF5F06FF01801484307EB54
:101B8000800108EBC100B0FBF5F000F0F80006EBB7
:101B90004006FEF71BFE00EBC00101EB0010616880
:101BA0004900B0FBF1F7FEF711FE00EBC00101EBBD
:101BB000001061684900B0FBF1F0B0FBF5F06FF088
:101BC0001801484307EB800108EBC100B0FBF5F0BA
:101BD00000F00700216830448860BDE8F081FEF71E
:101BE000F5FD00EBC00101EB001061688900B0FB5E
:101BF000F1F6FEF7EBFD00EBC00101EB00106168B0
:101C00008900B0FBF1F0B0FBF5F06FF0180148432C
:101C100006EB800108EB0110B0FBF5F000F0F006D8
:101C2000FEF7D4FD00EBC00101EB001061688900F4
:101C3000B0FBF1F0B0FBF5F006EB0016FEF7C6FDC9
:101C400000EBC00101EB001061688900B0FBF1F707
:101C5000FEF7BCFD00EBC00101EB001061688900DC
:101C6000B0FBF1F0B0FBF5F06FF01801484307EB63
:101C7000800108EB0110B0FBF5F000F00F00A9E7C0
:101C80000014014000100140FEE700000FB4054BB6
:101C900010B503A9044A029800F018F810BC5DF8CA
:101CA00014FB0000211E00081800002002E008C8F4
:101CB000121F08C1002AFAD170477047002001E0C6
:101CC00001C1121F002AFBD1704700002DE9FF4F10
:101CD00089B09B460446002506E025280BD05A46CD
:101CE0000B999047641C6D1C20780028F5D10DB02D
:101CF0002846BDE8F08F0027B8460122474900E09A
:101D0000074314F8013F203B02FA03F00842F7D1E1
:101D100020782E2819D114F8010F47F004072A283B
:101D20000ED06FF02F022078A0F1300109290CD8D5
:101D300008EB880102EB410100EB0108641CF2E7AB
:101D40000A98641C50F8048B0A9020780028CED0A2
:101D5000642808D0692806D075281ED05A460B99E9
:101D600090476D1C58E00A994FF00A0901C90A9181
:101D7000002802DA40422D2102E0390504D52B214A
:101D80008DF82010012103E0F90704D02021F7E7A6
:101D90008A4608AE0DE00021FAE70A994FF00A09D9
:101DA00001C90A91F7E74946FEF75FFA303106F8B4
:101DB000011D0028F7D1ADEB060000F120097807DE
:101DC00001D44FF00108C84502DDA8EB090000E08E
:101DD00000208046002706E008A85A46C05D0B99FF
:101DE00090476D1C7F1C5745F6DB04E030205A46B7
:101DF0000B9990476D1CB8F10001A8F10108F5DCC2
:101E000005E016F8010B5A460B9990476D1CB9F185
:101E10000001A9F10109F4DC641C65E7092801004F
:101E200003490A685206FCD5C2B24A6070470000F6
:101E300000100140FEF76AFBFFF79AFBFFF79AFAE2
:101E4000FFF7BEFAFFF70EFBFFF760FB4FF47A7463
:101E50002046FEF755FAFBE70000000000000000F6
:101E60000102030406070809000000000102030440
:101E7000901E0008000000201C000000AC1C0008A0
:101E8000AC1E00081C000020BC040000BC1C0008A4
:101E90000000000000000000010000001000000031
:0C1EA000000000000024F400000000001E
:04000005080001AD41
:00000001FF
