:020000040800F2
:1000000000040020C1010008A10200089D020008B0
:100010009F02000809020008F90300080000000020
:10002000000000000000000000000000C102000805
:100030000B02000800000000A3020008990300085A
:10004000DB010008DB010008DB010008DB01000820
:10005000DB010008DB010008DB010008DB01000810
:10006000DB010008DB010008DB010008DB01000800
:10007000DB010008DB010008DB010008DB010008F0
:10008000DB010008DB010008DB010008DB010008E0
:10009000DB010008DB010008DB010008DB010008D0
:1000A000DB010008DB010008DB010008DB010008C0
:1000B000DB010008DB010008DB010008DB010008B0
:1000C000DB010008DB010008DB010008DB010008A0
:1000D000DB010008DB010008DB010008DB01000890
:1000E000DB010008DB010008DB010008DB01000880
:1000F000DB010008DB010008DB010008DB01000870
:10010000DB010008DB010008DB010008DB0100085F
:10011000DB010008DB010008DB010008DB0100084F
:10012000DB010008DB010008DB010008DB0100083F
:10013000DB010008DB010008DB010008DB0100082F
:10014000DB010008DB010008DB010008DB0100081F
:10015000DB010008DB010008DB010008DB0100080F
:10016000DB010008DB010008DB010008DB010008FF
:10017000DB010008DB010008DB010008DB010008EF
:10018000DB010008DB010008DB010008DB010008DF
:10019000DB010008DB010008DB010008DB010008CF
:1001A000DB010008DB010008DB010008DFF80CD0F0
:1001B00000F018F800480047690400080004002017
:1001C0000648804706480047FEE7FEE7FEE7FEE7F1
:1001D000FEE7FEE7FEE7FEE7FEE7FEE79D03000819
:1001E000AD010008064C074D06E0E06840F0010351
:1001F00094E8070098471034AC42F6D3FFF7DAFFD3
:100200008804000898040008FEE770472DE9F041D3
:10021000002201274FF0030C07FA02F50B682B4070
:10022000AB422CD1066853000CFA03F4A6430660D7
:100230000E79D0F800809E4046EA080606600E79E6
:10024000012E01D0022E12D18668A64386604E7917
:10025000D0F808809E4046EA080686604668AE43AD
:10026000466045688E799640B6B235434560C568AC
:10027000A543C560CC799C40C3681C43C460521C34
:10028000102AC9D3BDE8F08142694A4042617047F3
:10029000002A01D00183704741837047FEE7FEE7E3
:1002A00070477047054A002903D011680143116067
:1002B0007047116881431160704700003038024078
:1002C000704700001CB50021019100912E4A106872
:1002D00040F4803010604FF4A043106800F4003008
:1002E00000900198401C0190009810B90198984224
:1002F000F3D11068800302D50120009000E0009146
:10030000009801283FD120484030016841F08051D9
:1003100001601E49086840F4404008601A480830EF
:1003200003680360036843F400430360036843F415
:10033000A0530360041F164B2360136843F08073BF
:10034000136013689B01FCD50A6842F480320A608E
:100350004A68D203FCD50A6842F400320A604A684F
:100360009203FCD50B4A40F205711160016821F03F
:1003700003010160016841F0020101600168C1F3FD
:1003800081010229FAD11CBD0038024000700040F2
:10039000195A4007003C02407047000010B512484F
:1003A000016841F4700101601048016841F00101E9
:1003B00001600E4A00210832116002680C4B1A409D
:1003C0000260031D0B4A1A60026822F48022026058
:1003D00006480C300160FFF775FF03494FF00060DD
:1003E0008039086010BD000088ED00E00038024050
:1003F000FFFFF6FE10300024FEE702E008C8121FDF
:1004000008C1002AFAD170477047002001E001C1FD
:10041000121F002AFBD1704701B502E00098401E70
:10042000009000980028F9D108BD00001CB50121FA
:100430000220FFF737FF0320009001218DF8041000
:1004400000228DF806208DF807108DF80500054C68
:1004500069462046FFF7DAFE002203212046FFF717
:1004600017FF1CBD00040240FFF7E0FF044C054DE0
:100470002046FFF7D1FF03212846FFF705FFF7E7E6
:10048000FFFF9F00000402409804000800000020C5
:08049000000400000A0400084A
:04000005080001AD41
:00000001FF
