:020000040800F2
:1000000000040020C1010008A10200089D020008B0
:100010009F02000809020008010600080000000015
:100020000000000000000000000000005D03000868
:100030000B0200080000000021030008350400083E
:10004000DB010008DB010008DB010008DB01000820
:10005000DB010008DB010008DB010008DB01000810
:10006000DB010008DB010008DB010008DB01000800
:10007000DB010008DB010008DB010008DB010008F0
:10008000DB010008DB010008DB010008DB010008E0
:10009000DB010008DB010008DB010008DB010008D0
:1000A000DB010008DB010008DB010008DB010008C0
:1000B000DB010008DB010008DB010008DB010008B0
:1000C000DB010008DB010008DB010008DB010008A0
:1000D000DB010008DB010008DB010008DB01000890
:1000E000DB010008DB010008DB010008DB01000880
:1000F000DB010008DB010008DB010008DB01000870
:10010000DB010008DB010008DB010008DB0100085F
:10011000DB010008DB010008DB0100089504000892
:10012000DB010008DB010008DB010008DB0100083F
:10013000DB010008DB010008DB010008DB0100082F
:10014000DB010008DB010008DB010008DB0100081F
:10015000DB010008DB010008DB010008DB0100080F
:10016000DB010008DB010008DB010008DB010008FF
:10017000DB010008DB010008DB010008DB010008EF
:10018000DB010008DB010008DB010008DB010008DF
:10019000DB010008DB010008DB010008DB010008CF
:1001A000DB010008DB010008DB010008DFF80CD0F0
:1001B00000F018F8004800475D0600080004002021
:1001C0000648804706480047FEE7FEE7FEE7FEE7F1
:1001D000FEE7FEE7FEE7FEE7FEE7FEE7390400087C
:1001E000AD010008064C074D06E0E06840F0010351
:1001F00094E8070098471034AC42F6D3FFF7DAFFD3
:100200006806000878060008FEE770472DE9F0410F
:10021000002201274FF0030C07FA02F50B682B4070
:10022000AB422CD1066853000CFA03F4A6430660D7
:100230000E79D0F800809E4046EA080606600E79E6
:10024000012E01D0022E12D18668A64386604E7917
:10025000D0F808809E4046EA080686604668AE43AD
:10026000466045688E799640B6B235434560C568AC
:10027000A543C560CC799C40C3681C43C460521C34
:10028000102AC9D3BDE8F08142694A4042617047F3
:10029000002A01D00183704741837047FEE7FEE7E3
:1002A0007047000030B50F23C27801250178002A7D
:1002B0001FD0154A126802F4E062C2F5E062C2F390
:1002C0000722C2F10404D3404278A24084781C4043
:1002D0001443220101F1E02181F80024007800F0AC
:1002E0001F018D404009800000F1E020C0F800515E
:1002F00030BD01F01F0085404809800000F1E0207A
:10030000C0F8805130BD00000CED00E00249084308
:1003100002490860704700000000FA050CED00E09B
:1003200070470000054A002903D01168014311609D
:1003300070471168814311607047000030380240F7
:10034000054A002903D01168014311607047116804
:100350008143116070470000403802407047000040
:100360001CB50021019100912E4A106840F48030A4
:1003700010604FF4A043106800F400300090019822
:10038000401C0190009810B901989842F3D1106870
:10039000800302D50120009000E000910098012820
:1003A0003FD120484030016841F0805101601E4932
:1003B000086840F4404008601A4808300368036049
:1003C000036843F400430360036843F4A0530360ED
:1003D000041F164B2360136843F080731360136887
:1003E0009B01FCD50A6842F480320A604A68D20355
:1003F000FCD50A6842F400320A604A689203FCD5D0
:100400000B4A40F205711160016821F0030101609F
:10041000016841F0020101600168C1F38101022914
:10042000FAD11CBD0038024000700040195A400744
:10043000003C02407047000010B51248016841F4CA
:10044000700101601048016841F0010101600E4A2D
:1004500000210832116002680C4B1A400260031D33
:100460000B4A1A60026822F48022026006480C30AF
:100470000160FFF775FF03494FF0006080390860A5
:1004800010BD000088ED00E000380240FFFFF6FEDE
:100490001030002410B5094C0121204600F021F84D
:1004A000002809D003210648FFF7EEFE2046BDE8EC
:1004B0001040012100F006B810BD000000140040FB
:1004C00000040240C94301827047002904D001881A
:1004D00041F0010101807047018821F00101018094
:1004E000704702460020138A0B4092890A40002B75
:1004F00002D0002A00D001207047002A03D0828950
:100500000A438281704782898A4382817047000052
:100510003EB501212020FFF713FF40F2F3100190B8
:1005200042F22730ADF80000074C6946204600F043
:100530000DF8012211462046FFF7DFFF012120467A
:10054000FFF7C3FF3EBD00000014004030B5028835
:10055000164C174DA0420DD0A8420BD0B0F1804FE1
:1005600008D0144B984205D0134B984202D0134B3D
:10057000984203D122F070034A881A43104B9842E4
:1005800006D0104B984203D022F440730A891A43D4
:1005900002804A68C2620A880285A04201D0A8424D
:1005A00001D1897A01860121818230BD000001409C
:1005B000000401400004004000080040000C00401E
:1005C000001000400014004010B500F004F8BDE831
:1005D0001040FFF79DBF08B54FF4E060FFF796FEAF
:1005E00037208DF8000000208DF8010003208DF8E1
:1005F000020001208DF803006846FFF753FE08BD96
:10060000FEE702E008C8121F08C1002AFAD17047AD
:100610007047002001E001C1121F002AFBD1704782
:100620001CB501210220FFF77DFE0320009001216F
:100630008DF8041000228DF806208DF807108DF833
:100640000500054C69462046FFF7E0FD0022032126
:100650002046FFF71DFE1CBD00040240FFF7E0FF2F
:10066000FFF7B2FFFEE70000780600080000002058
:0806700000040000120600085E
:04000005080001AD41
:00000001FF
