:020000040800F2
:1000000008040020C1010008F3020008AD02000846
:10001000F1020008090200087F0800080000000043
:10002000000000000000000000000000AD03000818
:100030000B0200080000000071030008850400089E
:10004000DB010008DB010008DB010008DB01000820
:10005000DB010008DB010008DB010008DB01000810
:10006000DB010008DB010008DB010008DB01000800
:10007000DB010008DB010008DB010008DB010008F0
:10008000DB010008DB010008DB010008DB010008E0
:10009000DB010008DB010008DB010008DB010008D0
:1000A000DB010008DB010008DB010008DB010008C0
:1000B000DB010008DB010008DB010008DB010008B0
:1000C000DB010008DB010008DB010008DB010008A0
:1000D000DB010008DB010008DB010008DB01000890
:1000E000DB010008DB010008DB010008DB01000880
:1000F000DB010008DB010008DB010008DB01000870
:10010000DB010008DB010008DB010008DB0100085F
:10011000DB010008DB010008DB01000871050008B5
:10012000DB010008DB010008DB010008DB0100083F
:10013000DB010008DB010008DB010008DB0100082F
:10014000DB010008DB010008DB010008DB0100081F
:10015000DB010008DB010008DB010008DB0100080F
:10016000DB010008DB010008DB010008DB010008FF
:10017000DB010008DB010008DB010008DB010008EF
:10018000DB010008DB010008DB010008DB010008DF
:10019000DB010008DB010008DB010008DB010008CF
:1001A000DB010008DB010008DB010008DFF80CD0F0
:1001B00000F018F8004800479F08000808040020D5
:1001C0000648804706480047FEE7FEE7FEE7FEE7F1
:1001D000FEE7FEE7FEE7FEE7FEE7FEE7890400082C
:1001E000AD010008064C074D06E0E06840F0010351
:1001F00094E8070098471034AC42F6D3FFF7DAFFD3
:10020000AC080008CC080008FEE770472DE9F04173
:10021000002201274FF0030C07FA02F50B682B4070
:10022000AB422CD1066853000CFA03F4A6430660D7
:100230000E79D0F800809E4046EA080606600E79E6
:10024000012E01D0022E12D18668A64386604E7917
:10025000D0F808809E4046EA080686604668AE43AD
:10026000466045688E799640B6B235434560C568AC
:10027000A543C560CC799C40C3681C43C460521C34
:10028000102AC9D3BDE8F08110B54B07DB0E9A40A8
:10029000C90800EB8100016A0F249C40A143016260
:1002A000016A1143016210BD01837047FEE700003F
:1002B0001CB50121022000F05DF80620009001200D
:1002C0008DF8040000218DF8061003218DF805102B
:1002D0008DF8070069460448FFF798FF032103489B
:1002E000FFF7E2FF1CBD00000004024000140240C2
:1002F000FEE7704730B50F23C27801250178002A48
:100300001FD0154A126802F4E062C2F5E062C2F33F
:100310000722C2F10404D3404278A24084781C40F2
:100320001443220101F1E02181F80024007800F05B
:100330001F018D404009800000F1E020C0F800510D
:1003400030BD01F01F0085404809800000F1E02029
:10035000C0F8805130BD00000CED00E002490843B8
:1003600002490860704700000000FA050CED00E04B
:1003700070470000054A002903D01168014311604D
:1003800070471168814311607047000030380240A7
:10039000054A002903D011680143116070471168B4
:1003A00081431160704700004038024070470000F0
:1003B0001CB50021019100912E4A106840F4803054
:1003C00010604FF4A043106800F4003000900198D2
:1003D000401C0190009810B901989842F3D1106820
:1003E000800302D50120009000E0009100980128D0
:1003F0003FD120484030016841F0805101601E49E2
:10040000086840F4404008601A48083003680360F8
:10041000036843F400430360036843F4A05303609C
:10042000041F164B2360136843F080731360136836
:100430009B01FCD50A6842F480320A604A68D20304
:10044000FCD50A6842F400320A604A689203FCD57F
:100450000B4A40F205711160016821F0030101604F
:10046000016841F0020101600168C1F381010229C4
:10047000FAD11CBD0038024000700040195A4007F4
:10048000003C02407047000010B51248016841F47A
:10049000700101601048016841F0010101600E4ADD
:1004A00000210832116002680C4B1A400260031DE3
:1004B0000B4A1A60026822F48022026006480C305F
:1004C0000160FFF775FF03494FF000608039086055
:1004D00010BD000088ED00E000380240FFFFF6FE8E
:1004E0001030002410B500F0B5F8BDE8104000F061
:1004F00001B8000010B588B001210220FFF748FFC5
:10050000B320ADF814000020ADF8160040F2F3114E
:100510000691ADF81C00154C05A9204600F05CF9C9
:100520006021ADF800100121ADF802100A210291FE
:100530000221ADF80C106946204600F00DF969461D
:10054000204600F0C1F80821204600F037F90821C4
:10055000204600F0FBF80121204600F05FF8012161
:10056000204600F06AF808B010BD0000000400400A
:1005700070B5154D0121284600F090F8002821D0D3
:10058000124C207818B16088401C608002E06188BD
:10059000491E61806188B1F5FA7F01D10020207089
:1005A000282901D101202070094E304600F012F9AF
:1005B0006188304600F00CF92846BDE87040012102
:1005C00000F038B870BD00000014004000000020AA
:1005D0000004004010B500F03DF9BDE8104000F007
:1005E00001B800003EB501212020FFF7D1FE42F204
:1005F0002730ADF800001D200190074C69462046C9
:1006000000F0EAF801221146204600F053F80121DB
:10061000204600F012F83EBD00140040002904D02E
:10062000018841F0800101807047018821F080013C
:1006300001807047C94301827047002904D00188B6
:1006400041F0010101807047018821F00101018022
:10065000704700001CB501210220FFF78BFE0E4CF5
:10066000022201212046FFF70FFE02220021204630
:10067000FFF70AFE0321009102228DF804208DF875
:10068000051000218DF8061001218DF8071069462C
:100690002046FFF7BBFD1CBD0004024002460020BF
:1006A000138A0B4092890A40002B02D0002A00D006
:1006B00001207047002A03D082890A438281704753
:1006C00082898A438281704770B5028C22F48072DD
:1006D0000284028C8388848B24F0700424F0030449
:1006E0000D88254322F400728E894FF6FF7404EAC8
:1006F000062616434A8804EA02223243114EB042CB
:1007000002D0114EB04217D122F40066CA8904EA21
:100710000222324322F480668A8804EA02223243AB
:1007200023F4805323F400530E8A04EA06161E4372
:100730004B8A04EA03133343838085838968C1634A
:10074000028470BD0000014000040140828B22F051
:1007500008020A438283704770B5028C22F48052EB
:100760000284058C8288838B23F4E04323F4407653
:100770000C884FF6FF7303EA0424344325F4005534
:100780008E8903EA06362E434D8803EA0535354344
:10079000084EB04202D0084EB04205D122F4804645
:1007A0000A8A03EA82123243828084838968016460
:1007B000058470BD0000014000040140828B22F4DA
:1007C00000624FF6FF7303EA0121114381837047F2
:1007D000C16370470164704730B50288164C174DED
:1007E000A0420DD0A8420BD0B0F1804F08D0144BDE
:1007F000984205D0134B984202D0134B984203D134
:1008000022F070034A881A43104B984206D0104BCE
:10081000984203D022F440730A891A4302804A683E
:10082000C2620A880285A04201D0A84201D1897A19
:1008300001860121818230BD000001400004014099
:100840000004004000080040000C00400010004080
:100850000014004008B54FF4E060FFF77FFD37203B
:100860008DF8000000208DF8010003208DF80200B3
:1008700001208DF803006846FFF73CFD08BDFEE748
:1008800002E008C8121F08C1002AFAD17047704759
:10089000002001E001C1121F002AFBD17047FFF7C1
:1008A00007FDFFF71FFEFFF795FEFEE7CC080008E7
:1008B000000000200400000080080008D0080008A4
:1008C000040000200404000090080008010000005B
:04000005080001AD41
:00000001FF
