:020000040800F2
:1000000000040020C10100080904000805040008DC
:100010000704000809020008290600080000000083
:10002000000000000000000000000000C5040008FF
:100030000B0200080000000089040008C905000840
:10004000DB010008DB010008DB010008DB01000820
:10005000DB010008DB010008DB010008DB01000810
:1000600081020008B1020008DB010008DB01000882
:10007000DB010008DB010008DB010008DB010008F0
:10008000DB010008DB010008DB010008DB010008E0
:10009000DB010008DB010008DB010008DB010008D0
:1000A000DB010008DB010008DB010008DB010008C0
:1000B000DB010008DB010008DB010008DB010008B0
:1000C000DB010008DB010008DB010008DB010008A0
:1000D000DB010008DB010008DB010008DB01000890
:1000E0004D020008DB010008DB010008DB0100080D
:1000F000DB010008DB010008DB010008DB01000870
:10010000DB010008DB010008DB010008DB0100085F
:10011000DB010008DB010008DB010008DB0100084F
:10012000DB010008DB010008DB010008DB0100083F
:10013000DB010008DB010008DB010008DB0100082F
:10014000DB010008DB010008DB010008DB0100081F
:10015000DB010008DB010008DB010008DB0100080F
:10016000DB010008DB010008DB010008DB010008FF
:10017000DB010008DB010008DB010008DB010008EF
:10018000DB010008DB010008DB010008DB010008DF
:10019000DB010008DB010008DB010008DB010008CF
:1001A000DB010008DB010008DB010008DFF80CD0F0
:1001B00000F018F800480047390700080004002044
:1001C0000648804706480047FEE7FEE7FEE7FEE7F1
:1001D000FEE7FEE7FEE7FEE7FEE7FEE7CD050008E7
:1001E000AD010008064C074D06E0E06840F0010351
:1001F00094E8070098471034AC42F6D3FFF7DAFFD3
:100200004807000858070008FEE7704708B54FF494
:10021000A06000F02FF908208DF8000001208DF873
:10022000010000218DF802108DF80300684600F0EF
:10023000EDF809208DF80000684600F0E7F8282066
:100240008DF80000684600F0E1F808BD10B54FF4E5
:100250000054204600F04AF800280BD0064800F071
:10026000F3F90221054800F0C3F82046BDE810402C
:1002700000F036B810BD0000FFFF0500000402408A
:1002800010B5042000F032F800280BD0064800F02A
:10029000DBF90321054800F0ABF8BDE8104004206D
:1002A00000F01EB810BD0000FFFF05000004024072
:1002B00010B5082000F01AF800280BD0064800F00E
:1002C000C3F90121054800F093F8BDE8104008206B
:1002D00000F006B810BD0000FFFF0500000402405A
:1002E0000149086070470000143C014001460020AD
:1002F000024A12680A4200D001207047143C0140B3
:1003000030B51B4A83790168002B2AD013688B43D0
:100310001360111D0B680468A3430B60017911443D
:100320000B68046823430B60114C08342168036890
:1003300099432160231D19680568A9431960417913
:10034000102905D011440A68006802430A6030BDD4
:10035000216802681143216019680068014319602F
:1003600030BD0079104402688A43026030BD00004D
:10037000003C01402DE9F041002201274FF0030C21
:1003800007FA02F50B682B40AB422CD106685300EC
:100390000CFA03F4A64306600E79D0F800809E4064
:1003A00046EA080606600E79012E01D0022E12D10F
:1003B0008668A64386604E79D0F808809E4046EA5B
:1003C000080686604668AE43466045688E7996406A
:1003D000B6B235434560C568A543C560CC799C403D
:1003E000C3681C43C460521C102AC9D3BDE8F08105
:1003F00042694A4042617047002A01D00183704738
:1004000041837047FEE7FEE77047000030B50F23D9
:10041000C27801250178002A1FD0154A126802F41B
:10042000E062C2F5E062C2F30722C2F10404D340E5
:100430004278A24084781C401443220101F1E0215B
:1004400081F80024007800F01F018D4040098000F1
:1004500000F1E020C0F8005130BD01F01F008540E0
:100460004809800000F1E020C0F8805130BD000054
:100470000CED00E0024908430249086070470000A3
:100480000000FA050CED00E070470000054A002965
:1004900003D01168014311607047116881431160F6
:1004A0007047000030380240054A002903D0116827
:1004B000014311607047116881431160704700006B
:1004C000443802407047000010B58A07120F0F230E
:1004D000934021F003040649214401F608010C6809
:1004E0009C430C600B68904003430B6010BD000000
:1004F000003001401CB50021019100912E4A106886
:1005000040F4803010604FF4A043106800F40030D5
:1005100000900198401C0190009810B901989842F1
:10052000F3D11068800302D50120009000E0009113
:10053000009801283FD120484030016841F08051A7
:1005400001601E49086840F4404008601A480830BD
:1005500003680360036843F400430360036843F4E3
:10056000A0530360041F164B2360136843F080738D
:10057000136013689B01FCD50A6842F480320A605C
:100580004A68D203FCD50A6842F400320A604A681D
:100590009203FCD50B4A40F205711160016821F00D
:1005A00003010160016841F0020101600168C1F3CB
:1005B00081010229FAD11CBD0038024000700040C0
:1005C000195A4007003C02407047000010B512481D
:1005D000016841F4700101601048016841F00101B7
:1005E00001600E4A00210832116002680C4B1A406B
:1005F0000260031D0B4A1A60026822F48022026026
:1006000006480C300160FFF775FF03494FF00060AA
:100610008039086010BD000088ED00E0003802401D
:10062000FFFFF6FE10300024FEE702E008C8121FAC
:1006300008C1002AFAD170477047002001E001C1CB
:10064000121F002AFBD1704701B502E00098401E3E
:10065000009000980028F9D108BD1CB5012188033D
:10066000FFF722FFFFF7D2FD02210720FFF72CFF43
:100670000420009000208DF804000C208DF8050067
:1006800001208DF806006846FFF73AFE0321072097
:10069000FFF71AFF082000906846FFF731FE0D2192
:1006A0000220FFF711FF4FF4005000906846FFF75B
:1006B00027FE1CBD1CB501218420FFF7E7FE0420A6
:1006C000009000208DF8040001208DF80700094CEF
:1006D00069462046FFF74EFE0821009169462046F4
:1006E000FFF748FE4FF40050009069460248FFF7BC
:1006F00041FE1CBD001C0240000802401CB5012147
:100700000220FFF7C3FE0320009001218DF80410A2
:1007100000228DF806208DF807108DF80500054C95
:1007200069462046FFF726FE002203212046FFF7F8
:1007300063FE1CBD00040240FFF7E0FFFFF7BAFFB5
:10074000FFF78BFFFEE700005807000800000020BD
:08075000000400003A06000855
:04000005080001AD41
:00000001FF
