:020000040800F2
:10000000D0040020C10100081312000819110008D3
:1000100011120008F90200086D1700080000000026
:10002000000000000000000000000000371200087F
:10003000AD03000800000000351200083912000866
:10004000DB010008DB010008DB010008DB01000820
:10005000DB010008DB010008DB010008DB01000810
:10006000DB010008DB010008DB010008DB01000800
:10007000DB010008DB010008DB010008DB010008F0
:10008000DB010008DB010008DB010008DB010008E0
:10009000DB010008DB010008DB010008DB010008D0
:1000A000DB010008DB010008DB010008DB010008C0
:1000B000DB010008DB010008DB010008DB010008B0
:1000C000DB010008DB010008DB010008DB010008A0
:1000D000DB0100089D160008DB010008DB010008B9
:1000E000DB010008DB010008DB010008DB01000880
:1000F000DB010008DB010008DB010008DB01000870
:10010000DB010008DB010008DB010008DB0100085F
:10011000DB010008DB010008DB010008DB0100084F
:10012000DB010008DB010008FD020008DB0100081C
:10013000DB010008DB010008DB010008DB0100082F
:10014000DB010008DB010008DB010008DB0100081F
:10015000DB010008DB010008DB010008DB0100080F
:10016000DB010008DB010008DB010008DB010008FF
:10017000DB010008DB010008DB01000800000000D3
:10018000DB010008DB010008DB010008DB010008DF
:10019000DB010008DB010008DB010008DB010008CF
:1001A000DB010008DB010008DB010008DFF80CD0F0
:1001B00000F090F80048004719190008D00400200A
:1001C0000648804706480047FEE7FEE7FEE7FEE7F1
:1001D000FEE7FEE7FEE7FEE7FEE7FEE7DD120008CA
:1001E000AD0100082DE9F05F0546002092469B46D0
:1001F00088460646814640241BE02846414647463D
:10020000224600F057F853465A46C01A914110D37F
:1002100011461846224600F03EF82D1A67EB0108F9
:100220004F4622460120002100F035F817EB000967
:100230004E41201EA4F10104DFDC484631462A4627
:100240004346BDE8F09FD2B201E000F8012B491E01
:10025000FBD270470022F6E710B513460A46044663
:100260001946FFF7F0FF204610BD30B50B4601469A
:1002700000202022012409E021FA02F59D4205D345
:1002800003FA02F5491B04FA02F52844151EA2F1EF
:100290000102F1DC30BD202A04DB203A00FA02F131
:1002A000002070479140C2F1200320FA03F3194364
:1002B00090407047202A04DB203A21FA02F0002106
:1002C000704721FA02F3D040C2F120029140084366
:1002D00019467047064C074D06E0E06840F0010300
:1002E00094E8070098471034AC42F6D3FFF762FF5A
:1002F0006819000888190008FEE70000014800F0AE
:1003000059B800006C00002001681823CAB2103AE6
:10031000B2FBF3F2054B6FF30901032A9B5CC36543
:1003200000D9091D8165084670470000481900087A
:1003300010B5014600208B698A6A4FF0C07453B132
:10034000B3F5005F15D072B1012A0CD0022A0AD091
:10035000032A09D104E01AB1012A06D0022A03D1E6
:10036000C96AC90100D5012010BDC96AA142FAD0ED
:1003700010BD002AF7D0012AF2D0022AF3D0032AB6
:10038000F3D010BD30B50468256825F480252560BC
:10039000046863608368402B036803D09960006839
:1003A000C26030BD9A600068C16030BD704772B6EF
:1003B000FEE700002DE9F84304464FF00009CDF8B0
:1003C000009063484FF41651A56D0068B0FBF1F73B
:1003D0002E6894F85C10082000FA01F131420FD029
:1003E00021680A6852070BD50A6822F004020A60E5
:1003F00094F85C108840A860606D40F00100606572
:1004000094F85C104FF0010808FA01F0304208D06F
:1004100021684969090604D5A860606D40F00200B2
:10042000606594F85C1004208840304208D0216850
:100430000968890704D5A860606D40F00400606514
:1004400094F85C1010208840304218D02168096868
:10045000090714D5A86020680168490304D500681D
:10046000000308D5A16C07E00168C90503D4016841
:1004700021F008010160216C09B12046884794F8F9
:100480005C1020208840304231D021680968C906BC
:100490002DD5A86094F8350005282068016806D09D
:1004A000490347D5006800031DD4616C1CE021F0AE
:1004B000160101602068416921F080014161206CD2
:1004C00008B9A06C20B12068016821F00801016022
:1004D00094F85C103F208840A86084F8349084F839
:1004E0003580216D1FE0E16B09B120468847606DC2
:1004F00000282BD0606DC00714D0052084F835008B
:100500002068016821F0010101600098401C009002
:10051000B84203D820680068C007F6D184F8349048
:1005200084F83580E16C002910D001B02046BDE888
:10053000F04308470168C905D5D4016821F01001CE
:10054000016084F8349084F83580CCE7BDE8F88306
:10055000100000202DE9F041044600F0A3F9064602
:100560005CB1002584F83450022084F835002068FE
:10057000016821F0010101600DE00120BDE8F0817A
:1005800000F090F9801B052805D920206065032024
:1005900084F83500F2E720680068C007F0D12268CF
:1005A000116820480140D4E901031843D4E9033617
:1005B0003343184363691843A3691843E369184335
:1005C000236A18430843616A042903D1D4E90B1351
:1005D00019430843106020684069666A20F00701EB
:1005E00030460E43012704280CD1A06A0643E06A76
:1005F00040B12046FFF79CFE20B14020606584F8A2
:100600003570BAE7206846612046FFF77DFE94F812
:100610005C203F2191408160656584F83570002041
:10062000ACE700003F8010F02DE9F0410446866DF4
:1006300090F83400002501280DD0012084F8340002
:1006400094F835700020012F07D084F8340002257B
:100650002846BDE8F0810220FBE7022784F83570C8
:1006600060652046FFF78EFE94F85C103F208840BE
:10067000B0602068016841F016010160206841699E
:1006800041F080014161206C20B12068016841F097
:10069000080101602068016841F001010160D7E7AD
:1006A00070B5044600F0FEF80546601C02D0044810
:1006B0000078044400F0F6F8401BA042FAD370BD65
:1006C000040000202DE9F84FDFF890B100224FF030
:1006D00001084FF0030A4FF00F090BF1040E00BFA1
:1006E0000B6808FA02F42340A3426ED14D68022D34
:1006F00001D0122D0ED1D50800EB850CDCF820506E
:100700005607F70E09FA07F6B5430E69BE402E43A9
:10071000CCF82060066855000F790AFA05FC07F04E
:10072000030726EA0C06AF40374307604E68012EE8
:1007300005D0022E03D0112E01D0122E0ED18768C3
:10074000CE6827EA0C07AE403E4386604668A64363
:100750000C79C4F30014944034434460C4688E6838
:1007600024EA0C04AE402643C6604C68E4006FD512
:100770003B4C256845F480452560246822F003053C
:1007800004F480440094374C2E19D6F80848950795
:100790002F0F09FA07F5AC43334DA84201D10025CC
:1007A0002EE0324DA84201D1012529E0304DA8426A
:1007B00001D1022524E02F4DA84201D103251FE0DD
:1007C0002D4DA84202D104251AE041E02B4DA8424C
:1007D00001D1052514E02A4DA84201D106250FE0DC
:1007E000284DA84201D107250AE0274DA84201D192
:1007F000082505E0254DA84201D1092500E00A257C
:10080000BD402543C6F80858DBF800405D464E68F9
:100810009C43F60300D51C432C60DEF8004075466F
:100820004E689C43B60300D51C432C600B4D083525
:100830002C684E689C43F60200D51C432C60074D83
:100840000C352C684E689C43B60200D51C432C60C6
:10085000521C102AFFF444AFBDE8F88F003C014061
:1008600044380240003001400000024000040240D1
:1008700000080240000C0240001002400014024038
:1008800000180240001C02400020024000240240E8
:1008900042694A40426170470AB181617047090468
:1008A000FBE700000148806870470000040000205A
:1008B000024881680278114481607047040000207A
:1008C0000B4810B5016841F400710160016841F402
:1008D00080610160016841F480710160032000F0D3
:1008E0006DF80F2000F006F800F024F8002010BD8D
:1008F000003C024070B50D4D04464FF47A712878E3
:10090000B1FBF0F00A490968B1FBF0F000F018FB08
:1009100048B9102C07D200222146501E00F02EF8B4
:1009200000206C6070BD012070BD0000040000203C
:10093000100000200A4808B5016841F480410160B8
:10094000006800F4804000900548001F016841F0F5
:1009500080510160006800F08050009008BD0000E8
:100960004438024000F01F020121914040098000FC
:1009700000F1E020C0F8001170470000F0B40E4B09
:100980001B680C46C3F30223C3F10705042D00D9ED
:100990000425191D072901D2002300E0DB1E0126D2
:1009A00006FA05F1491E214099409E40761E1640E8
:1009B0003143F0BC00F02EBC0CED00E0064900F025
:1009C000070208684FF6FF03184040EA0220034A76
:1009D00010430860704700000CED00E00000FA05CD
:1009E0002DE9F8431748016841F080510160006823
:1009F000154F00F08050012600903E64FFF752FF33
:100A000005464FF47A78114C05E000BFFFF74AFF26
:100A1000401B40450DD86068C003F7D57E64FFF7E2
:100A200041FF0546464607E0FFF73CFF401BB0424A
:100A300002D90320BDE8F88360688003F4D5002064
:100A4000F8E700004038024000000E42007000400D
:100A50002DE9F0470E46050065D0DFF81481D8F87F
:100A60000000F7B200F00F00B04207D288F8007023
:100A7000D8F8000000F00F00B04254D128683D4C77
:100A8000810712D5400703D5206840F4E05020606C
:100A90002878000703D5206840F460402060206873
:100AA000A96820F0F000084320602878C0072DD006
:100AB000304968680839012812D0022813D0032869
:100AC00011D00968890700292DDA216821F0030176
:100AD00001432160FFF7E6FE814641F2883A0EE0CD
:100AE00009688903EFE709688901ECE7FFF7DAFE97
:100AF000A0EB0901514502D90320BDE8F087206829
:100B0000696800F00C00B0EB810FEFD1D8F800104D
:100B1000404601F00F01B14207D90770006800F0AC
:100B20000F00B04201D00120E7E72878400705D543
:100B30002068E96820F4E050084320602878000726
:100B400006D52068296920F4604040EAC100206091
:100B500000F036F82168084AC1F30311515CC8401F
:100B6000064908600F20FFF7C5FE0020C5E700001A
:100B7000003C0240083802405019000810000020D4
:100B80000448054900680968044AC1F38221515CA0
:100B9000C840704710000020083802406019000863
:100BA0000448054900680968044AC1F34231515CB0
:100BB000C840704710000020083802406019000843
:100BC000154810B5006810F00C02144813D01449F1
:100BD000042A0FD0082A0ED10F4C241F2268236844
:100BE00002F03F025B0207D52068C0F38810A0FB2B
:100BF000010106E0084610BD2168C1F38811A1FB80
:100C000000010023FFF7EEFA2168C1F30141491CFE
:100C10004900B0FBF1F010BD083802400024F40098
:100C200040787D012DE9F84F050076D02878DFF86F
:100C3000F8B2BE4CC00749D0DBF800105846C1F3EB
:100C40008101012908D00068C0F3810002280AD17F
:100C5000201D0068400206D52068800336D56868EC
:100C60000028E2D032E06868B0F5803F10D0B0F5DF
:100C7000A02F206810D020F480302060206820F45D
:100C8000802020606868A0B1FFF70CFE06460CE0EB
:100C9000206840F48030F4E740F480202060F7E7DB
:100CA000FFF700FE801B642873D820688003F7D507
:100CB0000CE0FFF7F7FD064605E000BFFFF7F2FD89
:100CC000801B6428F0D820688003F7D42878DFF8E8
:100CD000608280074FF000093ED5DBF800105846CF
:100CE00011F00C0F09D00068C0F3810002280BD16D
:100CF0008D48001F0068400206D42068800715D583
:100D0000E868012809D111E0E868B8B10120C8F805
:100D10000000FFF7C7FD064605E002E1FFF7C2FD50
:100D2000801B0228C0D820688007F7D52068296971
:100D300020F0F80040EAC10020600DE0C8F8009003
:100D4000FFF7B0FD064604E0FFF7ACFD801B02286C
:100D50001FD820688007F7D42878000722D5724E64
:100D6000744869696C3671B101210160FFF79AFD21
:100D7000074604E0FFF796FDC01B022809D830683B
:100D80008007F7D50EE0C0F80090FFF78BFD07460F
:100D900005E083E0FFF786FDC01B02287ED830689F
:100DA0008007F7D42878400768D5DFF87CA10027B2
:100DB0000AF1380ADAF80000C0000BD4DAF80010A3
:100DC00041F08051CAF80010DAF80000012700F065
:100DD00080500090584E3068C00510D4306840F400
:100DE00080703060FFF75EFD009005E0FFF75AFD70
:100DF0000099401A022851D83068C005F6D54A4EED
:100E0000A868683601280FD00528306810D020F077
:100E100001003060306820F004003060A868B8B18C
:100E2000FFF740FD00900FE0306840F00100F4E76C
:100E300040F004003060F7E7FFF734FD0099411AF5
:100E400041F28830814264D830688007F4D50EE0E2
:100E5000FFF728FD009007E0FFF724FD0099411AF5
:100E600041F28830814254D830688007F4D42FB1E1
:100E7000DAF8001021F08051CAF80010A869C0B358
:100E8000DBF80010C1F3810102294AD0022848464C
:100E900007D0C8F86000FFF705FD00E039E005461F
:100EA0003AE04746C8F86000FFF7FCFC064604E05D
:100EB000FFF7F8FC801B02282BD820688001F7D4AC
:100EC000D5E907010843A96A1C4A490802EB014118
:100ED0006A6A41EA8211084395F82C1040EA0161E0
:100EE0001148001F016001203866FFF7DBFC054652
:100EF00005E014E0FFF7D6FC401B022809D8206863
:100F00008001F7D50BE000BFFFF7CCFC401B0228A7
:100F100002D90320BDE8F88F20688001F4D40020B6
:100F2000F8E70120F6E700000838024000380240E8
:100F300000004742800E4742007000400000FFFF63
:100F400010B5401EB0F1807F01D3012010BD4FF0DD
:100F5000E02460610F21601700F05CF90020A061BF
:100F600007202061002010BD704770B5040004D038
:100F700094F83900002510B106E0012070BD84F816
:100F80003850204600F022F8242084F839002068E8
:100F9000C16821F40051C160204600F029FA2068A0
:100FA000016921F4904101612068416921F02A0121
:100FB00041612068C16841F40051C160E5632020AF
:100FC00084F8390084F83A00002070BD70B586B00E
:100FD000064614216846FFF73DF9234930688842E8
:100FE00040D122480025016841F0100101600068ED
:100FF00000F0100005901D481438016841F001010F
:1010000001600068694600F0010005904FF4C0607F
:1010100000900220CDE901050320039007200490F1
:101020001348FFF74FFB144C124820604FF000604C
:10103000C4E901054014C4E903506561A561E56197
:10104000256220466562FFF785FA08B1FFF7AFF920
:101050007463002211462520A663FFF78FFC25202C
:10106000FFF780FC06B070BD00100140443802401C
:1010700000000240406402406C000020F8B50446C5
:1010800090F83A0020283CD1C1B3BAB394F83800A4
:10109000012836D0012084F83800A162A2850025FD
:1010A000E563222084F83A00636B1748D863636BCA
:1010B00016481864636B1648D864606B1346056560
:1010C0000846666B216802463046091DFFF7ACFAF8
:1010D000206801684168009184F83850C16841F483
:1010E0008071C1602068416941F00101416120685F
:1010F000416941F0400141610020F8BDFFE7012056
:10110000FBE70220F9E700007B130008B713000893
:101110003113000870477047FEE70000094808B522
:10112000016841F4800101600068002200F4800041
:10113000009011463A20FFF721FCBDE808403A2014
:10114000FFF710BC3038024030B587B01421684634
:10115000FFF780F819480024016841F0040101609C
:10116000016801F004010591016841F0800101600E
:10117000016801F080010591016841F00201016000
:10118000016801F002010591016841F0010101606F
:1011900000680B4D00F00100059000220121284657
:1011A000FFF77AFB01210091CDE901146946284639
:1011B0000394FFF787FA07B030BD000030380240D3
:1011C0000004024010B5114C0F480C2120604FF470
:1011D000E13060600020A060E060C4E90401A0612B
:1011E000E0612046FFF7C1FE08B1FFF7E0F80749CC
:1011F000142214390548FFF741FF2068C16841F007
:101200001001C16010BD0000001001402C00002042
:10121000FEE7FEE70907090E002806DA00F00F00D6
:1012200000F1E02080F8141D704700F1E02080F804
:101230000014704770477047FFF73ABB30B593B062
:1012400030216846FFF706F814210CA8FFF702F8D2
:1012500020480025016841F080510160006800F0DD
:10126000805011901C48016841F4404101600068C1
:10127000022400F4404011900120009000040190ED
:101280008001CDE90640192008904FF4B470CDE9F3
:10129000090404200B906846FFF7C4FC08B172B63D
:1012A000FEE7FFF79DFB08B172B6FEE70CA90F2021
:1012B00081E831004FF4A0500F904FF4805010900F
:1012C00005210CA8FFF7C4FB002801D072B6FEE789
:1012D00013B030BD40380240007000401048016833
:1012E00041F4700101600F48016841F001010160A3
:1012F0000C4A00210832116002680B4B1A40026050
:10130000031D0A4A1A60026822F48022026005481E
:101310000C300160024958068039086070470000AF
:1013200088ED00E000380240FFFFF6FE1030002498
:1013300070B5846B2068406994F83910C0F3C01010
:101340000025212904D118B1E584204600F046F893
:101350002068406994F83A10C0F38010222904D123
:1013600018B1E585204600F02BF8E06B40F0100046
:10137000E0632046FFF7F8FD70BD10B50146806BB5
:1013800009680968C90513D40021C1850168CA68C4
:1013900022F48072CA6001684A6922F001024A613F
:1013A00001684A6922F040024A61202180F83A101F
:1013B000FFF7B0FE10BD10B5806BFFF7ACFE10BD9F
:1013C0000168CA6822F49072CA6001684A6922F012
:1013D00001024A61202180F83A1070470168CA680A
:1013E00022F0C002CA60202180F839107047000046
:1013F0002DE9F04104460068016921F44052E1689A
:10140000114301612168C86849F20C629043236965
:10141000A268E5691A4363692B431A430243CA6011
:101420002168486920F44072A06910434861E1696D
:101430006425B1F5004F9748974A21684FF032086C
:101440003FD0914201D081427CD1FFF7A9FB00EB54
:10145000C00101EB001061688900B0FBF1F6FFF7F5
:101460009FFB00EBC00101EB001061688900B0FB3D
:10147000F1F0B0FBF5F06FF01801484306EB800186
:1014800008EB0110B0FBF5F000F0F006FFF788FB69
:1014900000EBC00101EB001061688900B0FBF1F0C6
:1014A000B0FBF5F006EB0016FFF77AFB00EBC0018E
:1014B00001EB001061688900B0FBF1F7FFF770FBEA
:1014C000D2E0914201D081423DD1FFF769FB00EBB0
:1014D000C00101EB001061684900B0FBF1F0B0FB06
:1014E000F5F00601FFF75CFB00EBC00101EB00101B
:1014F00061684900B0FBF1F7FFF752FB00EBC00158
:1015000001EB001061684900B0FBF1F0B0FBF5F0B1
:101510006FF01801484307EB800108EBC100B0FBF6
:10152000F5F000F0F80006EB4006FFF739FB00EBA2
:10153000C00101EB001061684900B0FBF1F7FFF753
:101540002FFB3CE055E0FFF71BFB00EBC00101EB7C
:10155000001061684900B0FBF1F0B0FBF5F0060146
:10156000FFF70EFB00EBC00101EB001061684900C2
:10157000B0FBF1F7FFF704FB00EBC00101EB00103B
:1015800061684900B0FBF1F0B0FBF5F06FF01801B5
:10159000484307EB800108EBC100B0FBF5F000F019
:1015A000F80006EB4006FFF7EBFA00EBC00101EB99
:1015B000001061684900B0FBF1F7FFF7E1FA00EBBA
:1015C000C00101EB001061684900B0FBF1F0B0FB15
:1015D000F5F06FF01801484307EB800108EBC100FC
:1015E000B0FBF5F000F00700216830448860BDE8EA
:1015F000F081FFF7C5FA00EBC00101EB0010616854
:101600008900B0FBF1F6FFF7BBFA00EBC00101EB7C
:10161000001061688900B0FBF1F0B0FBF5F06FF0ED
:101620001801484306EB800108EB0110B0FBF5F010
:1016300000F0F006FFF7A4FA00EBC00101EB001088
:1016400061688900B0FBF1F0B0FBF5F006EB001625
:10165000FFF796FA00EBC00101EB0010616889000A
:10166000B0FBF1F7FFF78CFA00EBC00101EB0010C3
:1016700061688900B0FBF1F0B0FBF5F06FF0180184
:10168000484307EB800108EB0110B0FBF5F000F0D8
:101690000F00A9E70014014000100140F8B5284CE4
:1016A00020680068C043C00649D4264801680A681B
:1016B00022F001020A6024490968244DC1F1140195
:1016C000214AC9B22970121F1368DB07FCD11E4BD7
:1016D000006814334FF40012984202D91A4B383B79
:1016E00004E01B4B984203D9174B3C3B1A6008E0BF
:1016F000174E174B603EB83BB04201D9DA6000E0AC
:101700009A60026842F00102026012A000F030F814
:1017100028781449401E40B2134B07E00A6852066D
:10172000FCD525681A5C6A60401E40B20028F5DAD4
:101730000BA000F01DF82068016840680090F8BD1B
:101740002C0000206C0000204464024000000020B7
:10175000B860024046696E69736865643A25642121
:101760000D0A00000010014018000020FEE70000F4
:101770000FB4054B10B503A9044A029800F018F8FD
:1017800010BC5DF814FB00000519000814000020CF
:1017900002E008C8121F08C1002AFAD1704770473A
:1017A000002001E001C1121F002AFBD17047000098
:1017B0002DE9FF4F89B09B460446002506E0252809
:1017C0000BD05A460B999047641C6D1C207800285A
:1017D000F5D10DB02846BDE8F08F0027B8460122AC
:1017E000474900E0074314F8013F203B02FA03F0A9
:1017F0000842F7D120782E2819D114F8010F47F0AC
:1018000004072A280ED06FF02F022078A0F13001B3
:1018100009290CD808EB880102EB410100EB010813
:10182000641CF2E70A98641C50F8048B0A90207834
:101830000028CED0642808D0692806D075281ED08C
:101840005A460B9990476D1C58E00A994FF00A09C7
:1018500001C90A91002802DA40422D2102E039052F
:1018600004D52B218DF82010012103E0F90704D0C5
:101870002021F7E78A4608AE0DE00021FAE70A9931
:101880004FF00A0901C90A91F7E74946FEF7EDFC56
:10189000303106F8011D0028F7D1ADEB060000F14C
:1018A0002009780701D44FF00108C84502DDA8EBF4
:1018B000090000E000208046002706E008A85A46FC
:1018C000C05D0B9990476D1C7F1C5745F6DB04E00B
:1018D00030205A460B9990476D1CB8F10001A8F1D1
:1018E0000108F5DC05E016F8010B5A460B99904704
:1018F0006D1CB9F10001A9F10109F4DC641C65E774
:101900000928010003490A685206FCD5C2B24A60A0
:101910007047000000100140FEF7D2FFFFF78EFC79
:10192000FFF712FCFFF7FAFBFFF74CFC054D4FF4F5
:101930007A742046FEF7B4FE01212846FEF7A8FF80
:10194000F7E700000004024000061016000610161B
:10195000000000000000000001020304060708095F
:1019600000000000010203048819000800000020A4
:101970001800000090170008A019000818000020A7
:10198000B8040000A01700080000000001000000DB
:1019900010000000000000000024F400000000001F
:04000005080001AD41
:00000001FF
